{
  "_format": "hh-sol-artifact-1",
  "contractName": "Hello",
  "sourceName": "contracts/Hello.sol",
  "abi": [
    {
      "inputs": [],
      "stateMutability": "payable",
      "type": "constructor"
    },
    {
      "anonymous": false,
      "inputs": [
        {
          "indexed": true,
          "internalType": "address",
          "name": "creator",
          "type": "address"
        },
        {
          "indexed": true,
          "internalType": "address",
          "name": "newContract",
          "type": "address"
        }
      ],
      "name": "NewContract",
      "type": "event"
    },
    {
      "inputs": [
        {
          "internalType": "uint256",
          "name": "amount",
          "type": "uint256"
        },
        {
          "internalType": "uint256",
          "name": "passKey",
          "type": "uint256"
        }
      ],
      "name": "createNote",
      "outputs": [],
      "stateMutability": "nonpayable",
      "type": "function"
    },
    {
      "inputs": [],
      "name": "deposit",
      "outputs": [],
      "stateMutability": "payable",
      "type": "function"
    },
    {
      "inputs": [],
      "name": "getBalances",
      "outputs": [
        {
          "internalType": "uint256",
          "name": "",
          "type": "uint256"
        }
      ],
      "stateMutability": "view",
      "type": "function"
    }
  ],
  "bytecode": "0x6080604052610715806100136000396000f3fe6080604052600436106100335760003560e01c8062113e08146100385780630e81aa2214610063578063d0e30db01461008c575b600080fd5b34801561004457600080fd5b5061004d610096565b60405161005a9190610318565b60405180910390f35b34801561006f57600080fd5b5061008a60048036038101906100859190610286565b6100dc565b005b61009461020d565b005b60008060003373ffffffffffffffffffffffffffffffffffffffff1673ffffffffffffffffffffffffffffffffffffffff16815260200190815260200160002054905090565b4782111561011f576040517f08c379a0000000000000000000000000000000000000000000000000000000008152600401610116906102f8565b60405180910390fd5b816000803373ffffffffffffffffffffffffffffffffffffffff1673ffffffffffffffffffffffffffffffffffffffff168152602001908152602001600020600082825461016d919061039a565b925050819055506000828260405161018490610264565b61018e9190610318565b6040518091039082f09050801580156101ab573d6000803e3d6000fd5b5090508073ffffffffffffffffffffffffffffffffffffffff163373ffffffffffffffffffffffffffffffffffffffff167f17182ea1a6748f7923ea0bfb4bf8bc76cc894e662541ad1ea15797322d541db860405160405180910390a3505050565b346000803373ffffffffffffffffffffffffffffffffffffffff1673ffffffffffffffffffffffffffffffffffffffff168152602001908152602001600020600082825461025b9190610344565b92505081905550565b6102938061044d83390190565b60008135905061028081610435565b92915050565b6000806040838503121561029d5761029c610407565b5b60006102ab85828601610271565b92505060206102bc85828601610271565b9150509250929050565b60006102d3601d83610333565b91506102de8261040c565b602082019050919050565b6102f2816103ce565b82525050565b60006020820190508181036000830152610311816102c6565b9050919050565b600060208201905061032d60008301846102e9565b92915050565b600082825260208201905092915050565b600061034f826103ce565b915061035a836103ce565b9250827fffffffffffffffffffffffffffffffffffffffffffffffffffffffffffffffff0382111561038f5761038e6103d8565b5b828201905092915050565b60006103a5826103ce565b91506103b0836103ce565b9250828210156103c3576103c26103d8565b5b828203905092915050565b6000819050919050565b7f4e487b7100000000000000000000000000000000000000000000000000000000600052601160045260246000fd5b600080fd5b7f616d6f756e74206d7573742062652067726561746572207468616e2030000000600082015250565b61043e816103ce565b811461044957600080fd5b5056fe608060405260405161029338038061029383398181016040528101906100259190610047565b806000819055505061009a565b60008151905061004181610083565b92915050565b60006020828403121561005d5761005c61007e565b5b600061006b84828501610032565b91505092915050565b6000819050919050565b600080fd5b61008c81610074565b811461009757600080fd5b50565b6101ea806100a96000396000f3fe608060405234801561001057600080fd5b506004361061002b5760003560e01c80632e1a7d4d14610030575b600080fd5b61004a600480360381019061004591906100be565b61004c565b005b6000548114610090576040517f08c379a00000000000000000000000000000000000000000000000000000000081526004016100879061010e565b60405180910390fd5b3373ffffffffffffffffffffffffffffffffffffffff16ff5b6000813590506100b88161019d565b92915050565b6000602082840312156100d4576100d3610149565b5b60006100e2848285016100a9565b91505092915050565b60006100f860228361012e565b91506101038261014e565b604082019050919050565b60006020820190508181036000830152610127816100eb565b9050919050565b600082825260208201905092915050565b6000819050919050565b600080fd5b7f476976652074686520636f72726563742070617373206b657920746f20636c6160008201527f696d000000000000000000000000000000000000000000000000000000000000602082015250565b6101a68161013f565b81146101b157600080fd5b5056fea2646970667358221220aa1ef63e3debe39bdf0deb65da4be0a13b988d148d46647e4d9f111c481d4fc164736f6c63430008060033a26469706673582212207f8c14c98e526e898ce82287ab34f77c602c25de9fd57a4b3a132f6e2b3c176e64736f6c63430008060033",
  "linkReferences": {},
  "deployedLinkReferences": {}
}