{
  "_format": "hh-sol-artifact-1",
  "contractName": "Hello",
  "sourceName": "contracts/Hello.sol",
  "abi": [
    {
      "inputs": [],
      "stateMutability": "payable",
      "type": "constructor"
    },
    {
      "anonymous": false,
      "inputs": [
        {
          "indexed": true,
          "internalType": "address",
          "name": "creator",
          "type": "address"
        },
        {
          "indexed": true,
          "internalType": "address",
          "name": "newContract",
          "type": "address"
        }
      ],
      "name": "NewContract",
      "type": "event"
    },
    {
      "inputs": [
        {
          "internalType": "uint256",
          "name": "amount",
          "type": "uint256"
        }
      ],
      "name": "createNote",
      "outputs": [],
      "stateMutability": "nonpayable",
      "type": "function"
    },
    {
      "inputs": [],
      "name": "deposit",
      "outputs": [],
      "stateMutability": "payable",
      "type": "function"
    },
    {
      "inputs": [],
      "name": "getBalances",
      "outputs": [
        {
          "internalType": "uint256",
          "name": "",
          "type": "uint256"
        }
      ],
      "stateMutability": "view",
      "type": "function"
    },
    {
      "inputs": [],
      "name": "owner",
      "outputs": [
        {
          "internalType": "address payable",
          "name": "",
          "type": "address"
        }
      ],
      "stateMutability": "view",
      "type": "function"
    }
  ],
  "bytecode": "0x6080604052336000806101000a81548173ffffffffffffffffffffffffffffffffffffffff021916908373ffffffffffffffffffffffffffffffffffffffff160217905550610641806100536000396000f3fe60806040526004361061003e5760003560e01c8062113e081461004357806320978a291461006e5780638da5cb5b14610097578063d0e30db0146100c2575b600080fd5b34801561004f57600080fd5b506100586100cc565b6040516100659190610380565b60405180910390f35b34801561007a57600080fd5b50610095600480360381019061009091906102d7565b610113565b005b3480156100a357600080fd5b506100ac610239565b6040516100b99190610345565b60405180910390f35b6100ca61025d565b005b6000600160003373ffffffffffffffffffffffffffffffffffffffff1673ffffffffffffffffffffffffffffffffffffffff16815260200190815260200160002054905090565b47811115610156576040517f08c379a000000000000000000000000000000000000000000000000000000000815260040161014d90610360565b60405180910390fd5b80600160003373ffffffffffffffffffffffffffffffffffffffff1673ffffffffffffffffffffffffffffffffffffffff16815260200190815260200160002060008282546101a59190610402565b925050819055506000816040516101bb906102b5565b6040518091039082f09050801580156101d8573d6000803e3d6000fd5b5090508073ffffffffffffffffffffffffffffffffffffffff163373ffffffffffffffffffffffffffffffffffffffff167f17182ea1a6748f7923ea0bfb4bf8bc76cc894e662541ad1ea15797322d541db860405160405180910390a35050565b60008054906101000a900473ffffffffffffffffffffffffffffffffffffffff1681565b34600160003373ffffffffffffffffffffffffffffffffffffffff1673ffffffffffffffffffffffffffffffffffffffff16815260200190815260200160002060008282546102ac91906103ac565b92505081905550565b610125806104e783390190565b6000813590506102d1816104cf565b92915050565b6000602082840312156102ed576102ec6104a1565b5b60006102fb848285016102c2565b91505092915050565b61030d81610436565b82525050565b6000610320601d8361039b565b915061032b826104a6565b602082019050919050565b61033f81610468565b82525050565b600060208201905061035a6000830184610304565b92915050565b6000602082019050818103600083015261037981610313565b9050919050565b60006020820190506103956000830184610336565b92915050565b600082825260208201905092915050565b60006103b782610468565b91506103c283610468565b9250827fffffffffffffffffffffffffffffffffffffffffffffffffffffffffffffffff038211156103f7576103f6610472565b5b828201905092915050565b600061040d82610468565b915061041883610468565b92508282101561042b5761042a610472565b5b828203905092915050565b600061044182610448565b9050919050565b600073ffffffffffffffffffffffffffffffffffffffff82169050919050565b6000819050919050565b7f4e487b7100000000000000000000000000000000000000000000000000000000600052601160045260246000fd5b600080fd5b7f616d6f756e74206d7573742062652067726561746572207468616e2030000000600082015250565b6104d881610468565b81146104e357600080fd5b5056fe6080604052610112806100136000396000f3fe6080604052348015600f57600080fd5b506004361060285760003560e01c80633ccfd60b14602d575b600080fd5b60336035565b005b3373ffffffffffffffffffffffffffffffffffffffff164760405160579060bb565b60006040518083038185875af1925050503d80600081146092576040519150601f19603f3d011682016040523d82523d6000602084013e6097565b606091505b505050565b600060a760008360ce565b915060b08260d9565b600082019050919050565b600060c482609c565b9150819050919050565b600081905092915050565b5056fea264697066735822122084850b9a83d3ea0abbbe25e6bc076e9144f8616dfc74e4cc8e007a74181e2a6a64736f6c63430008060033a264697066735822122004d5eb4f29a4f06400c3cfe00c44320cd29221a34cb5eb4e00aff94f3b14e9ca64736f6c63430008060033",
  "linkReferences": {},
  "deployedLinkReferences": {}
}