{
  "_format": "hh-sol-artifact-1",
  "contractName": "Main",
  "sourceName": "contracts/Main.sol",
  "abi": [
    {
      "inputs": [
        {
          "internalType": "contract Iverifier",
          "name": "_verifier",
          "type": "address"
        }
      ],
      "stateMutability": "payable",
      "type": "constructor"
    },
    {
      "anonymous": false,
      "inputs": [
        {
          "indexed": false,
          "internalType": "address",
          "name": "creator",
          "type": "address"
        },
        {
          "indexed": false,
          "internalType": "uint256",
          "name": "amount",
          "type": "uint256"
        }
      ],
      "name": "Created",
      "type": "event"
    },
    {
      "inputs": [],
      "name": "_owner",
      "outputs": [
        {
          "internalType": "address payable",
          "name": "",
          "type": "address"
        }
      ],
      "stateMutability": "view",
      "type": "function"
    },
    {
      "inputs": [
        {
          "internalType": "bytes32",
          "name": "",
          "type": "bytes32"
        }
      ],
      "name": "commitments",
      "outputs": [
        {
          "internalType": "bool",
          "name": "used",
          "type": "bool"
        },
        {
          "internalType": "bool",
          "name": "spent",
          "type": "bool"
        },
        {
          "internalType": "address",
          "name": "creator",
          "type": "address"
        },
        {
          "internalType": "address",
          "name": "recipient",
          "type": "address"
        },
        {
          "internalType": "uint256",
          "name": "createdDate",
          "type": "uint256"
        },
        {
          "internalType": "uint256",
          "name": "spentDate",
          "type": "uint256"
        },
        {
          "internalType": "uint256",
          "name": "denomination",
          "type": "uint256"
        }
      ],
      "stateMutability": "view",
      "type": "function"
    },
    {
      "inputs": [
        {
          "internalType": "bytes32",
          "name": "_commitment",
          "type": "bytes32"
        },
        {
          "internalType": "uint256",
          "name": "amount",
          "type": "uint256"
        }
      ],
      "name": "createNote",
      "outputs": [],
      "stateMutability": "nonpayable",
      "type": "function"
    },
    {
      "inputs": [],
      "name": "deposit",
      "outputs": [],
      "stateMutability": "payable",
      "type": "function"
    },
    {
      "inputs": [],
      "name": "getBalances",
      "outputs": [
        {
          "internalType": "uint256",
          "name": "",
          "type": "uint256"
        }
      ],
      "stateMutability": "view",
      "type": "function"
    },
    {
      "inputs": [
        {
          "internalType": "bytes32",
          "name": "",
          "type": "bytes32"
        }
      ],
      "name": "nullifierHashes",
      "outputs": [
        {
          "internalType": "bool",
          "name": "",
          "type": "bool"
        }
      ],
      "stateMutability": "view",
      "type": "function"
    },
    {
      "inputs": [],
      "name": "verifier",
      "outputs": [
        {
          "internalType": "contract Iverifier",
          "name": "",
          "type": "address"
        }
      ],
      "stateMutability": "view",
      "type": "function"
    },
    {
      "inputs": [
        {
          "internalType": "uint256[8]",
          "name": "_proof",
          "type": "uint256[8]"
        },
        {
          "internalType": "bytes32",
          "name": "_nullifierHash",
          "type": "bytes32"
        },
        {
          "internalType": "bytes32",
          "name": "_commitment",
          "type": "bytes32"
        },
        {
          "internalType": "address",
          "name": "_recipient",
          "type": "address"
        }
      ],
      "name": "withdraw",
      "outputs": [],
      "stateMutability": "nonpayable",
      "type": "function"
    }
  ],
  "bytecode": "0x60a06040526040516200179c3803806200179c8339818101604052810190620000299190620000c7565b60016000819055508073ffffffffffffffffffffffffffffffffffffffff1660808173ffffffffffffffffffffffffffffffffffffffff1660601b8152505033600360006101000a81548173ffffffffffffffffffffffffffffffffffffffff021916908373ffffffffffffffffffffffffffffffffffffffff1602179055505062000160565b600081519050620000c18162000146565b92915050565b600060208284031215620000e057620000df62000141565b5b6000620000f084828501620000b0565b91505092915050565b6000620001068262000121565b9050919050565b60006200011a82620000f9565b9050919050565b600073ffffffffffffffffffffffffffffffffffffffff82169050919050565b600080fd5b62000151816200010d565b81146200015d57600080fd5b50565b60805160601c6116166200018660003960008181610245015261039401526116166000f3fe60806040526004361061007a5760003560e01c8063b2bdfa7b1161004e578063b2bdfa7b14610155578063bf30438a14610180578063c1dda209146101a9578063d0e30db0146101d25761007a565b8062113e081461007f57806317cc915c146100aa5780632b7ac3f3146100e7578063839df94514610112575b600080fd5b34801561008b57600080fd5b506100946101dc565b6040516100a191906111f6565b60405180910390f35b3480156100b657600080fd5b506100d160048036038101906100cc9190610c23565b610223565b6040516100de9190611051565b60405180910390f35b3480156100f357600080fd5b506100fc610243565b60405161010991906110db565b60405180910390f35b34801561011e57600080fd5b5061013960048036038101906101349190610c23565b610267565b60405161014c979695949392919061106c565b60405180910390f35b34801561016157600080fd5b5061016a610303565b6040516101779190610fc6565b60405180910390f35b34801561018c57600080fd5b506101a760048036038101906101a29190610b8b565b610329565b005b3480156101b557600080fd5b506101d060048036038101906101cb9190610c50565b6107dd565b005b6101da610a63565b005b6000600460003373ffffffffffffffffffffffffffffffffffffffff1673ffffffffffffffffffffffffffffffffffffffff16815260200190815260200160002054905090565b60016020528060005260406000206000915054906101000a900460ff1681565b7f000000000000000000000000000000000000000000000000000000000000000081565b60026020528060005260406000206000915090508060000160009054906101000a900460ff16908060000160019054906101000a900460ff16908060000160029054906101000a900473ffffffffffffffffffffffffffffffffffffffff16908060010160009054906101000a900473ffffffffffffffffffffffffffffffffffffffff16908060020154908060030154908060040154905087565b600360009054906101000a900473ffffffffffffffffffffffffffffffffffffffff1681565b610331610abb565b6001600084815260200190815260200160002060009054906101000a900460ff1615610392576040517f08c379a0000000000000000000000000000000000000000000000000000000008152600401610389906110f6565b60405180910390fd5b7f000000000000000000000000000000000000000000000000000000000000000073ffffffffffffffffffffffffffffffffffffffff166311479fea6040518060400160405280876000600881106103ed576103ec611400565b5b602002013581526020018760016008811061040b5761040a611400565b5b6020020135815250604051806040016040528060405180604001604052808a60026008811061043d5761043c611400565b5b602002013581526020018a60036008811061045b5761045a611400565b5b6020020135815250815260200160405180604001604052808a60046008811061048757610486611400565b5b602002013581526020018a6005600881106104a5576104a4611400565b5b60200201358152508152506040518060400160405280896006600881106104cf576104ce611400565b5b60200201358152602001896007600881106104ed576104ec611400565b5b602002013581525060405180606001604052808960001c81526020018860001c81526020018773ffffffffffffffffffffffffffffffffffffffff168152506040518563ffffffff1660e01b815260040161054b949392919061100a565b60206040518083038186803b15801561056357600080fd5b505afa158015610577573d6000803e3d6000fd5b505050506040513d601f19601f8201168201806040525081019061059b9190610bf6565b6105da576040517f08c379a00000000000000000000000000000000000000000000000000000000081526004016105d190611176565b60405180910390fd5b6002600083815260200190815260200160002060000160009054906101000a900460ff1661063d576040517f08c379a0000000000000000000000000000000000000000000000000000000008152600401610634906111b6565b60405180910390fd5b600180600085815260200190815260200160002060006101000a81548160ff021916908315150217905550806002600084815260200190815260200160002060010160006101000a81548173ffffffffffffffffffffffffffffffffffffffff021916908373ffffffffffffffffffffffffffffffffffffffff16021790555042600260008481526020019081526020016000206003018190555060016002600084815260200190815260200160002060000160016101000a81548160ff02191690831515021790555060008173ffffffffffffffffffffffffffffffffffffffff1662030d40600260008681526020019081526020016000206004015460405161074790610fb1565b600060405180830381858888f193505050503d8060008114610785576040519150601f19603f3d011682016040523d82523d6000602084013e61078a565b606091505b50509050806107ce576040517f08c379a00000000000000000000000000000000000000000000000000000000081526004016107c5906111d6565b60405180910390fd5b506107d7610b0b565b50505050565b6107e5610abb565b6002600083815260200190815260200160002060000160009054906101000a900460ff1615610849576040517f08c379a000000000000000000000000000000000000000000000000000000000815260040161084090611156565b60405180910390fd5b6000811161088c576040517f08c379a000000000000000000000000000000000000000000000000000000000815260040161088390611136565b60405180910390fd5b600460003373ffffffffffffffffffffffffffffffffffffffff1673ffffffffffffffffffffffffffffffffffffffff1681526020019081526020016000205481111561090e576040517f08c379a000000000000000000000000000000000000000000000000000000000815260040161090590611116565b60405180910390fd5b60016002600084815260200190815260200160002060000160006101000a81548160ff021916908315150217905550336002600084815260200190815260200160002060000160026101000a81548173ffffffffffffffffffffffffffffffffffffffff021916908373ffffffffffffffffffffffffffffffffffffffff16021790555042600260008481526020019081526020016000206002018190555080600260008481526020019081526020016000206004018190555080600460003373ffffffffffffffffffffffffffffffffffffffff1673ffffffffffffffffffffffffffffffffffffffff1681526020019081526020016000206000828254610a179190611315565b925050819055507f0ce3610e89a4bb9ec9359763f99110ed52a4abaea0b62028a1637e242ca2768b3382604051610a4f929190610fe1565b60405180910390a1610a5f610b0b565b5050565b34600460003373ffffffffffffffffffffffffffffffffffffffff1673ffffffffffffffffffffffffffffffffffffffff1681526020019081526020016000206000828254610ab291906112bf565b92505081905550565b60026000541415610b01576040517f08c379a0000000000000000000000000000000000000000000000000000000008152600401610af890611196565b60405180910390fd5b6002600081905550565b6001600081905550565b600081359050610b2481611584565b92915050565b600081905082602060080282011115610b4657610b4561142f565b5b92915050565b600081519050610b5b8161159b565b92915050565b600081359050610b70816115b2565b92915050565b600081359050610b85816115c9565b92915050565b6000806000806101608587031215610ba657610ba5611434565b5b6000610bb487828801610b2a565b945050610100610bc687828801610b61565b935050610120610bd887828801610b61565b925050610140610bea87828801610b15565b91505092959194509250565b600060208284031215610c0c57610c0b611434565b5b6000610c1a84828501610b4c565b91505092915050565b600060208284031215610c3957610c38611434565b5b6000610c4784828501610b61565b91505092915050565b60008060408385031215610c6757610c66611434565b5b6000610c7585828601610b61565b9250506020610c8685828601610b76565b9150509250929050565b6000610c9c8383610d35565b60408301905092915050565b6000610cb48383610f93565b60208301905092915050565b610cc98161135b565b82525050565b610cd881611349565b82525050565b610ce78161122f565b610cf18184611277565b9250610cfc82611211565b8060005b83811015610d2d578151610d148782610c90565b9650610d1f83611250565b925050600181019050610d00565b505050505050565b610d3e8161123a565b610d488184611282565b9250610d538261121b565b8060005b83811015610d84578151610d6b8782610ca8565b9650610d768361125d565b925050600181019050610d57565b505050505050565b610d958161123a565b610d9f818461128d565b9250610daa8261121b565b8060005b83811015610ddb578151610dc28782610ca8565b9650610dcd8361125d565b925050600181019050610dae565b505050505050565b610dec81611245565b610df68184611298565b9250610e0182611225565b8060005b83811015610e32578151610e198782610ca8565b9650610e248361126a565b925050600181019050610e05565b505050505050565b610e438161136d565b82525050565b610e52816113ad565b82525050565b6000610e65601f836112ae565b9150610e7082611439565b602082019050919050565b6000610e88601d836112ae565b9150610e9382611462565b602082019050919050565b6000610eab6014836112ae565b9150610eb68261148b565b602082019050919050565b6000610ece6000836112a3565b9150610ed9826114b4565b600082019050919050565b6000610ef1600f836112ae565b9150610efc826114b7565b602082019050919050565b6000610f14600d836112ae565b9150610f1f826114e0565b602082019050919050565b6000610f37601f836112ae565b9150610f4282611509565b602082019050919050565b6000610f5a600b836112ae565b9150610f6582611532565b602082019050919050565b6000610f7d6007836112ae565b9150610f888261155b565b602082019050919050565b610f9c816113a3565b82525050565b610fab816113a3565b82525050565b6000610fbc82610ec1565b9150819050919050565b6000602082019050610fdb6000830184610cc0565b92915050565b6000604082019050610ff66000830185610ccf565b6110036020830184610fa2565b9392505050565b6000610160820190506110206000830187610d8c565b61102d6040830186610cde565b61103a60c0830185610d8c565b611048610100830184610de3565b95945050505050565b60006020820190506110666000830184610e3a565b92915050565b600060e082019050611081600083018a610e3a565b61108e6020830189610e3a565b61109b6040830188610ccf565b6110a86060830187610ccf565b6110b56080830186610fa2565b6110c260a0830185610fa2565b6110cf60c0830184610fa2565b98975050505050505050565b60006020820190506110f06000830184610e49565b92915050565b6000602082019050818103600083015261110f81610e58565b9050919050565b6000602082019050818103600083015261112f81610e7b565b9050919050565b6000602082019050818103600083015261114f81610e9e565b9050919050565b6000602082019050818103600083015261116f81610ee4565b9050919050565b6000602082019050818103600083015261118f81610f07565b9050919050565b600060208201905081810360008301526111af81610f2a565b9050919050565b600060208201905081810360008301526111cf81610f4d565b9050919050565b600060208201905081810360008301526111ef81610f70565b9050919050565b600060208201905061120b6000830184610fa2565b92915050565b6000819050919050565b6000819050919050565b6000819050919050565b600060029050919050565b600060029050919050565b600060039050919050565b6000602082019050919050565b6000602082019050919050565b6000602082019050919050565b600081905092915050565b600081905092915050565b600081905092915050565b600081905092915050565b600081905092915050565b600082825260208201905092915050565b60006112ca826113a3565b91506112d5836113a3565b9250827fffffffffffffffffffffffffffffffffffffffffffffffffffffffffffffffff0382111561130a576113096113d1565b5b828201905092915050565b6000611320826113a3565b915061132b836113a3565b92508282101561133e5761133d6113d1565b5b828203905092915050565b600061135482611383565b9050919050565b600061136682611383565b9050919050565b60008115159050919050565b6000819050919050565b600073ffffffffffffffffffffffffffffffffffffffff82169050919050565b6000819050919050565b60006113b8826113bf565b9050919050565b60006113ca82611383565b9050919050565b7f4e487b7100000000000000000000000000000000000000000000000000000000600052601160045260246000fd5b7f4e487b7100000000000000000000000000000000000000000000000000000000600052603260045260246000fd5b600080fd5b600080fd5b7f546865206e6f74652068617320616c7265616479206265656e207370656e7400600082015250565b7f4465706f736974206d6f726520746f20637265617465206e6f74652121000000600082015250565b7f496e76616c69642064656e6f6d696e6174696f6e000000000000000000000000600082015250565b50565b7f5573656420636f6d6d69746d656e740000000000000000000000000000000000600082015250565b7f496e76616c69642050726f6f6600000000000000000000000000000000000000600082015250565b7f5265656e7472616e637947756172643a207265656e7472616e742063616c6c00600082015250565b7f556e75736564204e6f7465000000000000000000000000000000000000000000600082015250565b7f696e76616c696400000000000000000000000000000000000000000000000000600082015250565b61158d81611349565b811461159857600080fd5b50565b6115a48161136d565b81146115af57600080fd5b50565b6115bb81611379565b81146115c657600080fd5b50565b6115d2816113a3565b81146115dd57600080fd5b5056fea2646970667358221220996356fafbd71af3cfbd794374e1d623318b60d875e733b66d053642ee93716464736f6c63430008060033",
  "linkReferences": {},
  "deployedLinkReferences": {}
}