{
  "_format": "hh-sol-artifact-1",
  "contractName": "Main",
  "sourceName": "contracts/Main.sol",
  "abi": [
    {
      "inputs": [],
      "stateMutability": "nonpayable",
      "type": "constructor"
    },
    {
      "anonymous": false,
      "inputs": [
        {
          "indexed": false,
          "internalType": "address",
          "name": "creator",
          "type": "address"
        },
        {
          "indexed": false,
          "internalType": "uint256",
          "name": "amount",
          "type": "uint256"
        }
      ],
      "name": "Created",
      "type": "event"
    },
    {
      "inputs": [],
      "name": "_owner",
      "outputs": [
        {
          "internalType": "address payable",
          "name": "",
          "type": "address"
        }
      ],
      "stateMutability": "view",
      "type": "function"
    },
    {
      "inputs": [
        {
          "internalType": "bytes32",
          "name": "",
          "type": "bytes32"
        }
      ],
      "name": "commitments",
      "outputs": [
        {
          "internalType": "bool",
          "name": "used",
          "type": "bool"
        },
        {
          "internalType": "bool",
          "name": "verified",
          "type": "bool"
        },
        {
          "internalType": "address",
          "name": "creator",
          "type": "address"
        },
        {
          "internalType": "address",
          "name": "recipient",
          "type": "address"
        },
        {
          "internalType": "uint256",
          "name": "createdDate",
          "type": "uint256"
        },
        {
          "internalType": "uint256",
          "name": "spentDate",
          "type": "uint256"
        },
        {
          "internalType": "uint256",
          "name": "denomination",
          "type": "uint256"
        }
      ],
      "stateMutability": "view",
      "type": "function"
    },
    {
      "inputs": [
        {
          "internalType": "bytes32",
          "name": "_commitment",
          "type": "bytes32"
        }
      ],
      "name": "createNote",
      "outputs": [],
      "stateMutability": "payable",
      "type": "function"
    },
    {
      "inputs": [
        {
          "internalType": "bytes32",
          "name": "_nullifierHash",
          "type": "bytes32"
        }
      ],
      "name": "isSpent",
      "outputs": [
        {
          "internalType": "bool",
          "name": "",
          "type": "bool"
        }
      ],
      "stateMutability": "view",
      "type": "function"
    },
    {
      "inputs": [
        {
          "internalType": "bytes32",
          "name": "",
          "type": "bytes32"
        }
      ],
      "name": "nullifierHashes",
      "outputs": [
        {
          "internalType": "bool",
          "name": "",
          "type": "bool"
        }
      ],
      "stateMutability": "view",
      "type": "function"
    },
    {
      "inputs": [
        {
          "internalType": "uint256[2]",
          "name": "_pA",
          "type": "uint256[2]"
        },
        {
          "internalType": "uint256[2][2]",
          "name": "_pB",
          "type": "uint256[2][2]"
        },
        {
          "internalType": "uint256[2]",
          "name": "_pC",
          "type": "uint256[2]"
        },
        {
          "internalType": "bytes32",
          "name": "_nullifierHash",
          "type": "bytes32"
        },
        {
          "internalType": "bytes32",
          "name": "_commitment",
          "type": "bytes32"
        },
        {
          "internalType": "address",
          "name": "_recipient",
          "type": "address"
        }
      ],
      "name": "verify",
      "outputs": [],
      "stateMutability": "nonpayable",
      "type": "function"
    }
  ],
  "bytecode": "0x608060405234801561001057600080fd5b5060016000819055506000604051610027906100ce565b604051809103906000f080158015610043573d6000803e3d6000fd5b50905080600460006101000a81548173ffffffffffffffffffffffffffffffffffffffff021916908373ffffffffffffffffffffffffffffffffffffffff16021790555033600360006101000a81548173ffffffffffffffffffffffffffffffffffffffff021916908373ffffffffffffffffffffffffffffffffffffffff160217905550506100db565b6106e8806113bb83390190565b6112d1806100ea6000396000f3fe6080604052600436106100555760003560e01c806317cc915c1461005a57806329e5b4a11461009757806345341b71146100c0578063839df945146100dc578063b2bdfa7b1461011f578063e5285dcc1461014a575b600080fd5b34801561006657600080fd5b50610081600480360381019061007c9190610a98565b610187565b60405161008e9190610e14565b60405180910390f35b3480156100a357600080fd5b506100be60048036038101906100b991906109da565b6101a7565b005b6100da60048036038101906100d59190610a98565b61044d565b005b3480156100e857600080fd5b5061010360048036038101906100fe9190610a98565b6105ea565b6040516101169796959493929190610e2f565b60405180910390f35b34801561012b57600080fd5b50610134610686565b6040516101419190610d89565b60405180910390f35b34801561015657600080fd5b50610171600480360381019061016c9190610a98565b6106ac565b60405161017e9190610e14565b60405180910390f35b60016020528060005260406000206000915054906101000a900460ff1681565b6101af6106d6565b6002600083815260200190815260200160002060000160009054906101000a900460ff16610212576040517f08c379a000000000000000000000000000000000000000000000000000000000815260040161020990610f9e565b60405180910390fd5b6001600084815260200190815260200160002060009054906101000a900460ff1615610273576040517f08c379a000000000000000000000000000000000000000000000000000000000815260040161026a90610f5e565b60405180910390fd5b6002600083815260200190815260200160002060000160019054906101000a900460ff16156102d7576040517f08c379a00000000000000000000000000000000000000000000000000000000081526004016102ce90610e9e565b60405180910390fd5b6000600460009054906101000a900473ffffffffffffffffffffffffffffffffffffffff1673ffffffffffffffffffffffffffffffffffffffff166311479fea88888860405180606001604052808a60001c81526020018960001c81526020018873ffffffffffffffffffffffffffffffffffffffff168152506040518563ffffffff1660e01b81526004016103709493929190610dcd565b60206040518083038186803b15801561038857600080fd5b505afa15801561039c573d6000803e3d6000fd5b505050506040513d601f19601f820116820180604052508101906103c09190610a6b565b905080610402576040517f08c379a00000000000000000000000000000000000000000000000000000000081526004016103f990610f3e565b60405180910390fd5b60016002600085815260200190815260200160002060000160016101000a81548160ff02191690831515021790555061043c848484610726565b5061044561094d565b505050505050565b6002600082815260200190815260200160002060000160009054906101000a900460ff16156104b1576040517f08c379a00000000000000000000000000000000000000000000000000000000081526004016104a890610f1e565b60405180910390fd5b600034116104f4576040517f08c379a00000000000000000000000000000000000000000000000000000000081526004016104eb90610ede565b60405180910390fd5b60016002600083815260200190815260200160002060000160006101000a81548160ff021916908315150217905550336002600083815260200190815260200160002060000160026101000a81548173ffffffffffffffffffffffffffffffffffffffff021916908373ffffffffffffffffffffffffffffffffffffffff1602179055504260026000838152602001908152602001600020600201819055503460026000838152602001908152602001600020600401819055507f0ce3610e89a4bb9ec9359763f99110ed52a4abaea0b62028a1637e242ca2768b33346040516105df929190610da4565b60405180910390a150565b60026020528060005260406000206000915090508060000160009054906101000a900460ff16908060000160019054906101000a900460ff16908060000160029054906101000a900473ffffffffffffffffffffffffffffffffffffffff16908060010160009054906101000a900473ffffffffffffffffffffffffffffffffffffffff16908060020154908060030154908060040154905087565b600360009054906101000a900473ffffffffffffffffffffffffffffffffffffffff1681565b60006001600083815260200190815260200160002060009054906101000a900460ff169050919050565b6002600054141561071c576040517f08c379a000000000000000000000000000000000000000000000000000000000815260040161071390610f7e565b60405180910390fd5b6002600081905550565b6001600084815260200190815260200160002060009054906101000a900460ff1615610787576040517f08c379a000000000000000000000000000000000000000000000000000000000815260040161077e90610ebe565b60405180910390fd5b6002600083815260200190815260200160002060000160009054906101000a900460ff166107ea576040517f08c379a00000000000000000000000000000000000000000000000000000000081526004016107e190610f9e565b60405180910390fd5b600180600085815260200190815260200160002060006101000a81548160ff021916908315150217905550806002600084815260200190815260200160002060010160006101000a81548173ffffffffffffffffffffffffffffffffffffffff021916908373ffffffffffffffffffffffffffffffffffffffff16021790555042600260008481526020019081526020016000206003018190555060008173ffffffffffffffffffffffffffffffffffffffff1660026000858152602001908152602001600020600401546040516108c190610d74565b60006040518083038185875af1925050503d80600081146108fe576040519150601f19603f3d011682016040523d82523d6000602084013e610903565b606091505b5050905080610947576040517f08c379a000000000000000000000000000000000000000000000000000000000815260040161093e90610efe565b60405180910390fd5b50505050565b6001600081905550565b60008135905061096681611256565b92915050565b600081905082604060020282011115610988576109876110b2565b5b92915050565b6000819050826020600202820111156109aa576109a96110b2565b5b92915050565b6000815190506109bf8161126d565b92915050565b6000813590506109d481611284565b92915050565b60008060008060008061016087890312156109f8576109f76110b7565b5b6000610a0689828a0161098e565b9650506040610a1789828a0161096c565b95505060c0610a2889828a0161098e565b945050610100610a3a89828a016109c5565b935050610120610a4c89828a016109c5565b925050610140610a5e89828a01610957565b9150509295509295509295565b600060208284031215610a8157610a806110b7565b5b6000610a8f848285016109b0565b91505092915050565b600060208284031215610aae57610aad6110b7565b5b6000610abc848285016109c5565b91505092915050565b6000610ad18383610b72565b60408301905092915050565b6000610ae98383610d56565b60208301905092915050565b610afe81611051565b82525050565b610b0d8161103f565b82525050565b610b1c81610fd2565b610b268184611002565b9250610b3182610fbe565b8060005b83811015610b6a57610b478284611034565b610b518782610ac5565b9650610b5c83610fe8565b925050600181019050610b35565b505050505050565b610b7e604083836110a3565b5050565b610b8e604083836110a3565b5050565b610b9b81610fdd565b610ba5818461100d565b9250610bb082610fc8565b8060005b83811015610be1578151610bc88782610add565b9650610bd383610ff5565b925050600181019050610bb4565b505050505050565b610bf281611063565b82525050565b6000610c05602383611023565b9150610c10826110bc565b604082019050919050565b6000610c28601f83611023565b9150610c338261110b565b602082019050919050565b6000610c4b601483611023565b9150610c5682611134565b602082019050919050565b6000610c6e601283611023565b9150610c798261115d565b602082019050919050565b6000610c91600083611018565b9150610c9c82611186565b600082019050919050565b6000610cb4600f83611023565b9150610cbf82611189565b602082019050919050565b6000610cd7600783611023565b9150610ce2826111b2565b602082019050919050565b6000610cfa602083611023565b9150610d05826111db565b602082019050919050565b6000610d1d601f83611023565b9150610d2882611204565b602082019050919050565b6000610d40600b83611023565b9150610d4b8261122d565b602082019050919050565b610d5f81611099565b82525050565b610d6e81611099565b82525050565b6000610d7f82610c84565b9150819050919050565b6000602082019050610d9e6000830184610af5565b92915050565b6000604082019050610db96000830185610b04565b610dc66020830184610d65565b9392505050565b600061016082019050610de36000830187610b82565b610df06040830186610b13565b610dfd60c0830185610b82565b610e0b610100830184610b92565b95945050505050565b6000602082019050610e296000830184610be9565b92915050565b600060e082019050610e44600083018a610be9565b610e516020830189610be9565b610e5e6040830188610b04565b610e6b6060830187610b04565b610e786080830186610d65565b610e8560a0830185610d65565b610e9260c0830184610d65565b98975050505050505050565b60006020820190508181036000830152610eb781610bf8565b9050919050565b60006020820190508181036000830152610ed781610c1b565b9050919050565b60006020820190508181036000830152610ef781610c3e565b9050919050565b60006020820190508181036000830152610f1781610c61565b9050919050565b60006020820190508181036000830152610f3781610ca7565b9050919050565b60006020820190508181036000830152610f5781610cca565b9050919050565b60006020820190508181036000830152610f7781610ced565b9050919050565b60006020820190508181036000830152610f9781610d10565b9050919050565b60006020820190508181036000830152610fb781610d33565b9050919050565b6000819050919050565b6000819050919050565b600060029050919050565b600060039050919050565b6000604082019050919050565b6000602082019050919050565b600081905092915050565b600081905092915050565b600081905092915050565b600082825260208201905092915050565b600082905092915050565b600061104a82611079565b9050919050565b600061105c82611079565b9050919050565b60008115159050919050565b6000819050919050565b600073ffffffffffffffffffffffffffffffffffffffff82169050919050565b6000819050919050565b82818337600083830152505050565b600080fd5b600080fd5b7f54686973206e6f746520686173206265656e20616c726561647920766572696660008201527f6965640000000000000000000000000000000000000000000000000000000000602082015250565b7f546865206e6f74652068617320616c7265616479206265656e207370656e7400600082015250565b7f496e76616c69642064656e6f6d696e6174696f6e000000000000000000000000600082015250565b7f6661696c6564207472616e73616374696f6e0000000000000000000000000000600082015250565b50565b7f5573656420636f6d6d69746d656e740000000000000000000000000000000000600082015250565b7f496e76616c696400000000000000000000000000000000000000000000000000600082015250565b7f54686973206e6f746520686173206265656e20616c7265616479207370656e74600082015250565b7f5265656e7472616e637947756172643a207265656e7472616e742063616c6c00600082015250565b7f556e75736564204e6f7465000000000000000000000000000000000000000000600082015250565b61125f8161103f565b811461126a57600080fd5b50565b61127681611063565b811461128157600080fd5b50565b61128d8161106f565b811461129857600080fd5b5056fea2646970667358221220ce9c972cda9953dee63c575d13671bf230eeea7a09e2303f803674a7cf07b4d564736f6c63430008060033608060405234801561001057600080fd5b506106c8806100206000396000f3fe608060405234801561001057600080fd5b506004361061002b5760003560e01c806311479fea14610030575b600080fd5b61004a600480360381019061004591906105e9565b610060565b6040516100579190610661565b60405180910390f35b600061052d565b7f30644e72e131a029b85045b68181585d97816a916871ca8d3c208c16d87cfd478110610098576000805260206000f35b50565b600060405183815284602082015285604082015260408160608360076107d05a03fa9150816100ce576000805260206000f35b825160408201526020830151606082015260408360808360066107d05a03fa9150816100fe576000805260206000f35b505050505050565b600060808601600087017f2159b6bce1e97495b0b8fce18a1b1cb5e50e07b686a975bbc48ceaf31e54c11f81527f2a2c609f9002324d9cedc9be26f90681d0f13c38781b17b8e7055eedad7e23c160208201526101a960008801357f096f28e7927eda1d7de49adf664b5181152e60d280c63aecd6420a06c925eeb27f018114187311326853bcb43e8e61c4f825fa38001c988c54360a54dfdd5af1698461009b565b6101f960208801357f1c9d642101a5e90a1961bdf4be9985e53d89844c8386af8433ab757ec46597147f293ef357093ddd736bd9da5d0aba6ce7c87d040eefddf3e8e73a07d5299890ba8461009b565b61024960408801357f100244c92ae7f36a03c16a68c51f96ed3a0cfadee58c1c5644499a9cf20d3ae57f08097f1af2eb1b4090647b30ca14a1537f7d26c338b6a636cdb22ed95e446b6a8461009b565b833582527f30644e72e131a029b85045b68181585d97816a916871ca8d3c208c16d87cfd4760208501357f30644e72e131a029b85045b68181585d97816a916871ca8d3c208c16d87cfd4703066020830152843560408301526020850135606083015260408501356080830152606085013560a08301527f235bc1a78005e766c1cb321cc512916cb88b4b702328fd14785779b31150c79760c08301527f0a6f8e7b07cd37cda0aa0b337563b27e824c504b9572c0362f5f73ee9f8c0dae60e08301527f0772a8fcbb359893ce31e631f2bb08eb34ac12e6e2344eb6ada5ef2e4836c9996101008301527f168d1ea3b055fc9b22d26430bf0c0a48f8a9f65e7c061c855194aed5b5a694566101208301527f2018614921a5648fc3ec42edd81ba00c68a83374f0539c579ac97cb5cb93b39c6101408301527f1c1aff6763daac915e10dc72011ab19dd884e1b291d9d88f81d840458f218f31610160830152600088015161018083015260206000018801516101a08301527f198e9393920d483a7260bfb731fb5d25f1aa493335a9e71297e485b7aef312c26101c08301527f1800deef121f1e76426a00665e5c4479674322d4f75edadd46debd5cd992f6ed6101e08301527f090689d0585ff075ec9e99ad690c3395bc4b313370b38ef355acdadcd122975b6102008301527f12c85ea5db8c6deb4aab71808dcb408fe3d1e7690c43d37b4ce6cc0166fa7daa610220830152853561024083015260208601356102608301527f2bf4a224a8e54afe8d47a082c3ca434a0c7a61e87da35300bc80a9afc24bd2fc6102808301527f0f46052d0ec21236dad36a802b4f00b41a6ce2feea4a0764b60ddd0d78c954cf6102a08301527f1c7c507349df1e985a095b11d74ee5c5fe72fd76548adb1071408976b03585246102c08301527f1723c516d667e2023388ad0e24fa92b608a004b4ea1297f5f76cce4270aa4e046102e08301526020826103008460086107d05a03fa82518116935050505095945050505050565b60405161038081016040526105456000840135610067565b6105526020840135610067565b61055f6040840135610067565b61056c6060840135610067565b610579818486888a610106565b8060005260206000f35b60008190508260406002028201111561059f5761059e610688565b5b92915050565b6000819050826020600202820111156105c1576105c0610688565b5b92915050565b6000819050826020600302820111156105e3576105e2610688565b5b92915050565b60008060008061016085870312156106045761060361068d565b5b6000610612878288016105a5565b945050604061062387828801610583565b93505060c0610634878288016105a5565b925050610100610646878288016105c7565b91505092959194509250565b61065b8161067c565b82525050565b60006020820190506106766000830184610652565b92915050565b60008115159050919050565b600080fd5b600080fdfea26469706673582212206a955e9f99547f542c66e15f929bd4519fd8bcb73e52a7042e7824ea72715d5664736f6c63430008060033",
  "linkReferences": {},
  "deployedLinkReferences": {}
}