{
  "_format": "hh-sol-artifact-1",
  "contractName": "Main",
  "sourceName": "contracts/Main.sol",
  "abi": [
    {
      "inputs": [],
      "stateMutability": "nonpayable",
      "type": "constructor"
    },
    {
      "anonymous": false,
      "inputs": [
        {
          "indexed": false,
          "internalType": "address",
          "name": "creator",
          "type": "address"
        },
        {
          "indexed": false,
          "internalType": "uint256",
          "name": "amount",
          "type": "uint256"
        }
      ],
      "name": "Created",
      "type": "event"
    },
    {
      "inputs": [],
      "name": "_owner",
      "outputs": [
        {
          "internalType": "address payable",
          "name": "",
          "type": "address"
        }
      ],
      "stateMutability": "view",
      "type": "function"
    },
    {
      "inputs": [
        {
          "internalType": "bytes32",
          "name": "",
          "type": "bytes32"
        }
      ],
      "name": "commitments",
      "outputs": [
        {
          "internalType": "bool",
          "name": "used",
          "type": "bool"
        },
        {
          "internalType": "address",
          "name": "creator",
          "type": "address"
        },
        {
          "internalType": "address",
          "name": "recipient",
          "type": "address"
        },
        {
          "internalType": "uint256",
          "name": "createdDate",
          "type": "uint256"
        },
        {
          "internalType": "uint256",
          "name": "spentDate",
          "type": "uint256"
        },
        {
          "internalType": "uint256",
          "name": "denomination",
          "type": "uint256"
        }
      ],
      "stateMutability": "view",
      "type": "function"
    },
    {
      "inputs": [
        {
          "internalType": "bytes32",
          "name": "_commitment",
          "type": "bytes32"
        }
      ],
      "name": "createNote",
      "outputs": [],
      "stateMutability": "payable",
      "type": "function"
    },
    {
      "inputs": [
        {
          "internalType": "bytes32",
          "name": "_nullifierHash",
          "type": "bytes32"
        }
      ],
      "name": "isSpent",
      "outputs": [
        {
          "internalType": "bool",
          "name": "",
          "type": "bool"
        }
      ],
      "stateMutability": "view",
      "type": "function"
    },
    {
      "inputs": [
        {
          "internalType": "bytes32",
          "name": "",
          "type": "bytes32"
        }
      ],
      "name": "nullifierHashes",
      "outputs": [
        {
          "internalType": "bool",
          "name": "",
          "type": "bool"
        }
      ],
      "stateMutability": "view",
      "type": "function"
    },
    {
      "inputs": [
        {
          "internalType": "uint256[2]",
          "name": "_pA",
          "type": "uint256[2]"
        },
        {
          "internalType": "uint256[2][2]",
          "name": "_pB",
          "type": "uint256[2][2]"
        },
        {
          "internalType": "uint256[2]",
          "name": "_pC",
          "type": "uint256[2]"
        },
        {
          "internalType": "bytes32",
          "name": "_nullifierHash",
          "type": "bytes32"
        },
        {
          "internalType": "bytes32",
          "name": "_commitment",
          "type": "bytes32"
        },
        {
          "internalType": "address",
          "name": "_recipient",
          "type": "address"
        }
      ],
      "name": "verify",
      "outputs": [],
      "stateMutability": "nonpayable",
      "type": "function"
    }
  ],
  "bytecode": "0x608060405234801561001057600080fd5b50600060405161001f906100c6565b604051809103906000f08015801561003b573d6000803e3d6000fd5b50905080600360006101000a81548173ffffffffffffffffffffffffffffffffffffffff021916908373ffffffffffffffffffffffffffffffffffffffff16021790555033600260006101000a81548173ffffffffffffffffffffffffffffffffffffffff021916908373ffffffffffffffffffffffffffffffffffffffff160217905550506100d3565b6106e88061106383390190565b610f81806100e26000396000f3fe6080604052600436106100555760003560e01c806317cc915c1461005a57806329e5b4a11461009757806345341b71146100c0578063839df945146100dc578063b2bdfa7b1461011e578063e5285dcc14610149575b600080fd5b34801561006657600080fd5b50610081600480360381019061007c91906108c0565b610186565b60405161008e9190610bd3565b60405180910390f35b3480156100a357600080fd5b506100be60048036038101906100b99190610802565b6101a6565b005b6100da60048036038101906100d591906108c0565b6102e5565b005b3480156100e857600080fd5b5061010360048036038101906100fe91906108c0565b610481565b60405161011596959493929190610bee565b60405180910390f35b34801561012a57600080fd5b5061013361050a565b6040516101409190610b48565b60405180910390f35b34801561015557600080fd5b50610170600480360381019061016b91906108c0565b610530565b60405161017d9190610bd3565b60405180910390f35b60006020528060005260406000206000915054906101000a900460ff1681565b6000600360009054906101000a900473ffffffffffffffffffffffffffffffffffffffff1673ffffffffffffffffffffffffffffffffffffffff166311479fea88888860405180606001604052808a60001c81526020018960001c81526020018873ffffffffffffffffffffffffffffffffffffffff168152506040518563ffffffff1660e01b815260040161023f9493929190610b8c565b60206040518083038186803b15801561025757600080fd5b505afa15801561026b573d6000803e3d6000fd5b505050506040513d601f19601f8201168201806040525081019061028f9190610893565b9050806102d1576040517f08c379a00000000000000000000000000000000000000000000000000000000081526004016102c890610ccf565b60405180910390fd5b6102dc848484610559565b50505050505050565b6001600082815260200190815260200160002060000160009054906101000a900460ff1615610349576040517f08c379a000000000000000000000000000000000000000000000000000000000815260040161034090610caf565b60405180910390fd5b6000341161038c576040517f08c379a000000000000000000000000000000000000000000000000000000000815260040161038390610c6f565b60405180910390fd5b600180600083815260200190815260200160002060000160006101000a81548160ff021916908315150217905550336001600083815260200190815260200160002060000160016101000a81548173ffffffffffffffffffffffffffffffffffffffff021916908373ffffffffffffffffffffffffffffffffffffffff1602179055504260016000838152602001908152602001600020600201819055503460016000838152602001908152602001600020600401819055507f0ce3610e89a4bb9ec9359763f99110ed52a4abaea0b62028a1637e242ca2768b3334604051610476929190610b63565b60405180910390a150565b60016020528060005260406000206000915090508060000160009054906101000a900460ff16908060000160019054906101000a900473ffffffffffffffffffffffffffffffffffffffff16908060010160009054906101000a900473ffffffffffffffffffffffffffffffffffffffff16908060020154908060030154908060040154905086565b600260009054906101000a900473ffffffffffffffffffffffffffffffffffffffff1681565b600080600083815260200190815260200160002060009054906101000a900460ff169050919050565b60008084815260200190815260200160002060009054906101000a900460ff16156105b9576040517f08c379a00000000000000000000000000000000000000000000000000000000081526004016105b090610c4f565b60405180910390fd5b6001600083815260200190815260200160002060000160009054906101000a900460ff1661061c576040517f08c379a000000000000000000000000000000000000000000000000000000000815260040161061390610cef565b60405180910390fd5b600160008085815260200190815260200160002060006101000a81548160ff021916908315150217905550806001600084815260200190815260200160002060010160006101000a81548173ffffffffffffffffffffffffffffffffffffffff021916908373ffffffffffffffffffffffffffffffffffffffff16021790555042600160008481526020019081526020016000206003018190555060008173ffffffffffffffffffffffffffffffffffffffff1660016000858152602001908152602001600020600401546040516106f390610b33565b60006040518083038185875af1925050503d8060008114610730576040519150601f19603f3d011682016040523d82523d6000602084013e610735565b606091505b5050905080610779576040517f08c379a000000000000000000000000000000000000000000000000000000000815260040161077090610c8f565b60405180910390fd5b50505050565b60008135905061078e81610f06565b92915050565b6000819050826040600202820111156107b0576107af610e03565b5b92915050565b6000819050826020600202820111156107d2576107d1610e03565b5b92915050565b6000815190506107e781610f1d565b92915050565b6000813590506107fc81610f34565b92915050565b60008060008060008061016087890312156108205761081f610e08565b5b600061082e89828a016107b6565b965050604061083f89828a01610794565b95505060c061085089828a016107b6565b94505061010061086289828a016107ed565b93505061012061087489828a016107ed565b92505061014061088689828a0161077f565b9150509295509295509295565b6000602082840312156108a9576108a8610e08565b5b60006108b7848285016107d8565b91505092915050565b6000602082840312156108d6576108d5610e08565b5b60006108e4848285016107ed565b91505092915050565b60006108f9838361099a565b60408301905092915050565b60006109118383610b15565b60208301905092915050565b61092681610da2565b82525050565b61093581610d90565b82525050565b61094481610d23565b61094e8184610d53565b925061095982610d0f565b8060005b838110156109925761096f8284610d85565b61097987826108ed565b965061098483610d39565b92505060018101905061095d565b505050505050565b6109a660408383610df4565b5050565b6109b660408383610df4565b5050565b6109c381610d2e565b6109cd8184610d5e565b92506109d882610d19565b8060005b83811015610a095781516109f08782610905565b96506109fb83610d46565b9250506001810190506109dc565b505050505050565b610a1a81610db4565b82525050565b6000610a2d601f83610d74565b9150610a3882610e0d565b602082019050919050565b6000610a50601483610d74565b9150610a5b82610e36565b602082019050919050565b6000610a73601283610d74565b9150610a7e82610e5f565b602082019050919050565b6000610a96600083610d69565b9150610aa182610e88565b600082019050919050565b6000610ab9600f83610d74565b9150610ac482610e8b565b602082019050919050565b6000610adc600783610d74565b9150610ae782610eb4565b602082019050919050565b6000610aff600b83610d74565b9150610b0a82610edd565b602082019050919050565b610b1e81610dea565b82525050565b610b2d81610dea565b82525050565b6000610b3e82610a89565b9150819050919050565b6000602082019050610b5d600083018461091d565b92915050565b6000604082019050610b78600083018561092c565b610b856020830184610b24565b9392505050565b600061016082019050610ba260008301876109aa565b610baf604083018661093b565b610bbc60c08301856109aa565b610bca6101008301846109ba565b95945050505050565b6000602082019050610be86000830184610a11565b92915050565b600060c082019050610c036000830189610a11565b610c10602083018861092c565b610c1d604083018761092c565b610c2a6060830186610b24565b610c376080830185610b24565b610c4460a0830184610b24565b979650505050505050565b60006020820190508181036000830152610c6881610a20565b9050919050565b60006020820190508181036000830152610c8881610a43565b9050919050565b60006020820190508181036000830152610ca881610a66565b9050919050565b60006020820190508181036000830152610cc881610aac565b9050919050565b60006020820190508181036000830152610ce881610acf565b9050919050565b60006020820190508181036000830152610d0881610af2565b9050919050565b6000819050919050565b6000819050919050565b600060029050919050565b600060039050919050565b6000604082019050919050565b6000602082019050919050565b600081905092915050565b600081905092915050565b600081905092915050565b600082825260208201905092915050565b600082905092915050565b6000610d9b82610dca565b9050919050565b6000610dad82610dca565b9050919050565b60008115159050919050565b6000819050919050565b600073ffffffffffffffffffffffffffffffffffffffff82169050919050565b6000819050919050565b82818337600083830152505050565b600080fd5b600080fd5b7f546865206e6f74652068617320616c7265616479206265656e207370656e7400600082015250565b7f496e76616c69642064656e6f6d696e6174696f6e000000000000000000000000600082015250565b7f6661696c6564207472616e73616374696f6e0000000000000000000000000000600082015250565b50565b7f5573656420636f6d6d69746d656e740000000000000000000000000000000000600082015250565b7f496e76616c696400000000000000000000000000000000000000000000000000600082015250565b7f556e75736564204e6f7465000000000000000000000000000000000000000000600082015250565b610f0f81610d90565b8114610f1a57600080fd5b50565b610f2681610db4565b8114610f3157600080fd5b50565b610f3d81610dc0565b8114610f4857600080fd5b5056fea26469706673582212203d7354a928b8f20fba129ab76301b7551329ef21411e2a6005dcbb8a2754a42664736f6c63430008060033608060405234801561001057600080fd5b506106c8806100206000396000f3fe608060405234801561001057600080fd5b506004361061002b5760003560e01c806311479fea14610030575b600080fd5b61004a600480360381019061004591906105e9565b610060565b6040516100579190610661565b60405180910390f35b600061052d565b7f30644e72e131a029b85045b68181585d97816a916871ca8d3c208c16d87cfd478110610098576000805260206000f35b50565b600060405183815284602082015285604082015260408160608360076107d05a03fa9150816100ce576000805260206000f35b825160408201526020830151606082015260408360808360066107d05a03fa9150816100fe576000805260206000f35b505050505050565b600060808601600087017f2159b6bce1e97495b0b8fce18a1b1cb5e50e07b686a975bbc48ceaf31e54c11f81527f2a2c609f9002324d9cedc9be26f90681d0f13c38781b17b8e7055eedad7e23c160208201526101a960008801357f096f28e7927eda1d7de49adf664b5181152e60d280c63aecd6420a06c925eeb27f018114187311326853bcb43e8e61c4f825fa38001c988c54360a54dfdd5af1698461009b565b6101f960208801357f1c9d642101a5e90a1961bdf4be9985e53d89844c8386af8433ab757ec46597147f293ef357093ddd736bd9da5d0aba6ce7c87d040eefddf3e8e73a07d5299890ba8461009b565b61024960408801357f100244c92ae7f36a03c16a68c51f96ed3a0cfadee58c1c5644499a9cf20d3ae57f08097f1af2eb1b4090647b30ca14a1537f7d26c338b6a636cdb22ed95e446b6a8461009b565b833582527f30644e72e131a029b85045b68181585d97816a916871ca8d3c208c16d87cfd4760208501357f30644e72e131a029b85045b68181585d97816a916871ca8d3c208c16d87cfd4703066020830152843560408301526020850135606083015260408501356080830152606085013560a08301527f235bc1a78005e766c1cb321cc512916cb88b4b702328fd14785779b31150c79760c08301527f0a6f8e7b07cd37cda0aa0b337563b27e824c504b9572c0362f5f73ee9f8c0dae60e08301527f0772a8fcbb359893ce31e631f2bb08eb34ac12e6e2344eb6ada5ef2e4836c9996101008301527f168d1ea3b055fc9b22d26430bf0c0a48f8a9f65e7c061c855194aed5b5a694566101208301527f2018614921a5648fc3ec42edd81ba00c68a83374f0539c579ac97cb5cb93b39c6101408301527f1c1aff6763daac915e10dc72011ab19dd884e1b291d9d88f81d840458f218f31610160830152600088015161018083015260206000018801516101a08301527f198e9393920d483a7260bfb731fb5d25f1aa493335a9e71297e485b7aef312c26101c08301527f1800deef121f1e76426a00665e5c4479674322d4f75edadd46debd5cd992f6ed6101e08301527f090689d0585ff075ec9e99ad690c3395bc4b313370b38ef355acdadcd122975b6102008301527f12c85ea5db8c6deb4aab71808dcb408fe3d1e7690c43d37b4ce6cc0166fa7daa610220830152853561024083015260208601356102608301527f2bf4a224a8e54afe8d47a082c3ca434a0c7a61e87da35300bc80a9afc24bd2fc6102808301527f0f46052d0ec21236dad36a802b4f00b41a6ce2feea4a0764b60ddd0d78c954cf6102a08301527f1c7c507349df1e985a095b11d74ee5c5fe72fd76548adb1071408976b03585246102c08301527f1723c516d667e2023388ad0e24fa92b608a004b4ea1297f5f76cce4270aa4e046102e08301526020826103008460086107d05a03fa82518116935050505095945050505050565b60405161038081016040526105456000840135610067565b6105526020840135610067565b61055f6040840135610067565b61056c6060840135610067565b610579818486888a610106565b8060005260206000f35b60008190508260406002028201111561059f5761059e610688565b5b92915050565b6000819050826020600202820111156105c1576105c0610688565b5b92915050565b6000819050826020600302820111156105e3576105e2610688565b5b92915050565b60008060008061016085870312156106045761060361068d565b5b6000610612878288016105a5565b945050604061062387828801610583565b93505060c0610634878288016105a5565b925050610100610646878288016105c7565b91505092959194509250565b61065b8161067c565b82525050565b60006020820190506106766000830184610652565b92915050565b60008115159050919050565b600080fd5b600080fdfea26469706673582212206a955e9f99547f542c66e15f929bd4519fd8bcb73e52a7042e7824ea72715d5664736f6c63430008060033",
  "linkReferences": {},
  "deployedLinkReferences": {}
}