{
  "_format": "hh-sol-artifact-1",
  "contractName": "Main",
  "sourceName": "contracts/Main.sol",
  "abi": [
    {
      "inputs": [],
      "stateMutability": "payable",
      "type": "constructor"
    },
    {
      "anonymous": false,
      "inputs": [
        {
          "indexed": false,
          "internalType": "address",
          "name": "creator",
          "type": "address"
        },
        {
          "indexed": false,
          "internalType": "uint256",
          "name": "amount",
          "type": "uint256"
        }
      ],
      "name": "Created",
      "type": "event"
    },
    {
      "inputs": [],
      "name": "_owner",
      "outputs": [
        {
          "internalType": "address payable",
          "name": "",
          "type": "address"
        }
      ],
      "stateMutability": "view",
      "type": "function"
    },
    {
      "inputs": [
        {
          "internalType": "bytes32",
          "name": "",
          "type": "bytes32"
        }
      ],
      "name": "commitments",
      "outputs": [
        {
          "internalType": "bool",
          "name": "used",
          "type": "bool"
        },
        {
          "internalType": "bool",
          "name": "spent",
          "type": "bool"
        },
        {
          "internalType": "address",
          "name": "creator",
          "type": "address"
        },
        {
          "internalType": "address",
          "name": "recipient",
          "type": "address"
        },
        {
          "internalType": "uint256",
          "name": "createdDate",
          "type": "uint256"
        },
        {
          "internalType": "uint256",
          "name": "spentDate",
          "type": "uint256"
        },
        {
          "internalType": "uint256",
          "name": "denomination",
          "type": "uint256"
        }
      ],
      "stateMutability": "view",
      "type": "function"
    },
    {
      "inputs": [
        {
          "internalType": "bytes32",
          "name": "_commitment",
          "type": "bytes32"
        },
        {
          "internalType": "uint256",
          "name": "amount",
          "type": "uint256"
        }
      ],
      "name": "createNote",
      "outputs": [],
      "stateMutability": "nonpayable",
      "type": "function"
    },
    {
      "inputs": [],
      "name": "deposit",
      "outputs": [],
      "stateMutability": "payable",
      "type": "function"
    },
    {
      "inputs": [],
      "name": "getBalances",
      "outputs": [
        {
          "internalType": "uint256",
          "name": "",
          "type": "uint256"
        }
      ],
      "stateMutability": "view",
      "type": "function"
    },
    {
      "inputs": [
        {
          "internalType": "bytes32",
          "name": "",
          "type": "bytes32"
        }
      ],
      "name": "nullifierHashes",
      "outputs": [
        {
          "internalType": "bool",
          "name": "",
          "type": "bool"
        }
      ],
      "stateMutability": "view",
      "type": "function"
    },
    {
      "inputs": [
        {
          "internalType": "uint256[8]",
          "name": "_proof",
          "type": "uint256[8]"
        },
        {
          "internalType": "bytes32",
          "name": "_nullifierHash",
          "type": "bytes32"
        },
        {
          "internalType": "bytes32",
          "name": "_commitment",
          "type": "bytes32"
        },
        {
          "internalType": "address",
          "name": "_recipient",
          "type": "address"
        }
      ],
      "name": "withdraw",
      "outputs": [],
      "stateMutability": "nonpayable",
      "type": "function"
    }
  ],
  "bytecode": "0x6080604052600160008190555033600460006101000a81548173ffffffffffffffffffffffffffffffffffffffff021916908373ffffffffffffffffffffffffffffffffffffffff16021790555061156c8061005c6000396000f3fe60806040526004361061006f5760003560e01c8063b2bdfa7b1161004e578063b2bdfa7b1461011f578063bf30438a1461014a578063c1dda20914610173578063d0e30db01461019c5761006f565b8062113e081461007457806317cc915c1461009f578063839df945146100dc575b600080fd5b34801561008057600080fd5b506100896101a6565b6040516100969190611170565b60405180910390f35b3480156100ab57600080fd5b506100c660048036038101906100c19190610bc7565b6101ed565b6040516100d39190610fe6565b60405180910390f35b3480156100e857600080fd5b5061010360048036038101906100fe9190610bc7565b61020d565b6040516101169796959493929190611001565b60405180910390f35b34801561012b57600080fd5b506101346102a9565b6040516101419190610f5b565b60405180910390f35b34801561015657600080fd5b50610171600480360381019061016c9190610b2f565b6102cf565b005b34801561017f57600080fd5b5061019a60048036038101906101959190610bf4565b610781565b005b6101a4610a07565b005b6000600560003373ffffffffffffffffffffffffffffffffffffffff1673ffffffffffffffffffffffffffffffffffffffff16815260200190815260200160002054905090565b60026020528060005260406000206000915054906101000a900460ff1681565b60036020528060005260406000206000915090508060000160009054906101000a900460ff16908060000160019054906101000a900460ff16908060000160029054906101000a900473ffffffffffffffffffffffffffffffffffffffff16908060010160009054906101000a900473ffffffffffffffffffffffffffffffffffffffff16908060020154908060030154908060040154905087565b600460009054906101000a900473ffffffffffffffffffffffffffffffffffffffff1681565b6102d7610a5f565b6002600084815260200190815260200160002060009054906101000a900460ff1615610338576040517f08c379a000000000000000000000000000000000000000000000000000000000815260040161032f90611090565b60405180910390fd5b600160009054906101000a900473ffffffffffffffffffffffffffffffffffffffff1673ffffffffffffffffffffffffffffffffffffffff166311479fea60405180604001604052808760006008811061039557610394611356565b5b60200201358152602001876001600881106103b3576103b2611356565b5b6020020135815250604051806040016040528060405180604001604052808a6002600881106103e5576103e4611356565b5b602002013581526020018a60036008811061040357610402611356565b5b6020020135815250815260200160405180604001604052808a60046008811061042f5761042e611356565b5b602002013581526020018a60056008811061044d5761044c611356565b5b602002013581525081525060405180604001604052808960066008811061047757610476611356565b5b602002013581526020018960076008811061049557610494611356565b5b602002013581525060405180606001604052808960001c81526020018860001c81526020018773ffffffffffffffffffffffffffffffffffffffff168152506040518563ffffffff1660e01b81526004016104f39493929190610f9f565b60206040518083038186803b15801561050b57600080fd5b505afa15801561051f573d6000803e3d6000fd5b505050506040513d601f19601f820116820180604052508101906105439190610b9a565b610582576040517f08c379a000000000000000000000000000000000000000000000000000000000815260040161057990611110565b60405180910390fd5b6003600083815260200190815260200160002060000160009054906101000a900460ff166105e5576040517f08c379a00000000000000000000000000000000000000000000000000000000081526004016105dc90611150565b60405180910390fd5b60016002600085815260200190815260200160002060006101000a81548160ff021916908315150217905550806003600084815260200190815260200160002060010160006101000a81548173ffffffffffffffffffffffffffffffffffffffff021916908373ffffffffffffffffffffffffffffffffffffffff16021790555042600360008481526020019081526020016000206003018190555060016003600084815260200190815260200160002060000160016101000a81548160ff02191690831515021790555060008173ffffffffffffffffffffffffffffffffffffffff1660036000858152602001908152602001600020600401546040516106ec90610f46565b60006040518083038185875af1925050503d8060008114610729576040519150601f19603f3d011682016040523d82523d6000602084013e61072e565b606091505b5050905080610772576040517f08c379a000000000000000000000000000000000000000000000000000000000815260040161076990611070565b60405180910390fd5b5061077b610aaf565b50505050565b610789610a5f565b6003600083815260200190815260200160002060000160009054906101000a900460ff16156107ed576040517f08c379a00000000000000000000000000000000000000000000000000000000081526004016107e4906110f0565b60405180910390fd5b60008111610830576040517f08c379a0000000000000000000000000000000000000000000000000000000008152600401610827906110d0565b60405180910390fd5b600560003373ffffffffffffffffffffffffffffffffffffffff1673ffffffffffffffffffffffffffffffffffffffff168152602001908152602001600020548111156108b2576040517f08c379a00000000000000000000000000000000000000000000000000000000081526004016108a9906110b0565b60405180910390fd5b60016003600084815260200190815260200160002060000160006101000a81548160ff021916908315150217905550336003600084815260200190815260200160002060000160026101000a81548173ffffffffffffffffffffffffffffffffffffffff021916908373ffffffffffffffffffffffffffffffffffffffff16021790555042600360008481526020019081526020016000206002018190555080600360008481526020019081526020016000206004018190555080600560003373ffffffffffffffffffffffffffffffffffffffff1673ffffffffffffffffffffffffffffffffffffffff16815260200190815260200160002060008282546109bb919061128f565b925050819055507f0ce3610e89a4bb9ec9359763f99110ed52a4abaea0b62028a1637e242ca2768b33826040516109f3929190610f76565b60405180910390a1610a03610aaf565b5050565b34600560003373ffffffffffffffffffffffffffffffffffffffff1673ffffffffffffffffffffffffffffffffffffffff1681526020019081526020016000206000828254610a569190611239565b92505081905550565b60026000541415610aa5576040517f08c379a0000000000000000000000000000000000000000000000000000000008152600401610a9c90611130565b60405180910390fd5b6002600081905550565b6001600081905550565b600081359050610ac8816114da565b92915050565b600081905082602060080282011115610aea57610ae9611385565b5b92915050565b600081519050610aff816114f1565b92915050565b600081359050610b1481611508565b92915050565b600081359050610b298161151f565b92915050565b6000806000806101608587031215610b4a57610b4961138a565b5b6000610b5887828801610ace565b945050610100610b6a87828801610b05565b935050610120610b7c87828801610b05565b925050610140610b8e87828801610ab9565b91505092959194509250565b600060208284031215610bb057610baf61138a565b5b6000610bbe84828501610af0565b91505092915050565b600060208284031215610bdd57610bdc61138a565b5b6000610beb84828501610b05565b91505092915050565b60008060408385031215610c0b57610c0a61138a565b5b6000610c1985828601610b05565b9250506020610c2a85828601610b1a565b9150509250929050565b6000610c408383610cd9565b60408301905092915050565b6000610c588383610f28565b60208301905092915050565b610c6d816112d5565b82525050565b610c7c816112c3565b82525050565b610c8b816111a9565b610c9581846111f1565b9250610ca08261118b565b8060005b83811015610cd1578151610cb88782610c34565b9650610cc3836111ca565b925050600181019050610ca4565b505050505050565b610ce2816111b4565b610cec81846111fc565b9250610cf782611195565b8060005b83811015610d28578151610d0f8782610c4c565b9650610d1a836111d7565b925050600181019050610cfb565b505050505050565b610d39816111b4565b610d438184611207565b9250610d4e82611195565b8060005b83811015610d7f578151610d668782610c4c565b9650610d71836111d7565b925050600181019050610d52565b505050505050565b610d90816111bf565b610d9a8184611212565b9250610da58261119f565b8060005b83811015610dd6578151610dbd8782610c4c565b9650610dc8836111e4565b925050600181019050610da9565b505050505050565b610de7816112e7565b82525050565b6000610dfa600f83611228565b9150610e058261138f565b602082019050919050565b6000610e1d601f83611228565b9150610e28826113b8565b602082019050919050565b6000610e40601d83611228565b9150610e4b826113e1565b602082019050919050565b6000610e63601483611228565b9150610e6e8261140a565b602082019050919050565b6000610e8660008361121d565b9150610e9182611433565b600082019050919050565b6000610ea9600f83611228565b9150610eb482611436565b602082019050919050565b6000610ecc600d83611228565b9150610ed78261145f565b602082019050919050565b6000610eef601f83611228565b9150610efa82611488565b602082019050919050565b6000610f12600b83611228565b9150610f1d826114b1565b602082019050919050565b610f318161131d565b82525050565b610f408161131d565b82525050565b6000610f5182610e79565b9150819050919050565b6000602082019050610f706000830184610c64565b92915050565b6000604082019050610f8b6000830185610c73565b610f986020830184610f37565b9392505050565b600061016082019050610fb56000830187610d30565b610fc26040830186610c82565b610fcf60c0830185610d30565b610fdd610100830184610d87565b95945050505050565b6000602082019050610ffb6000830184610dde565b92915050565b600060e082019050611016600083018a610dde565b6110236020830189610dde565b6110306040830188610c73565b61103d6060830187610c73565b61104a6080830186610f37565b61105760a0830185610f37565b61106460c0830184610f37565b98975050505050505050565b6000602082019050818103600083015261108981610ded565b9050919050565b600060208201905081810360008301526110a981610e10565b9050919050565b600060208201905081810360008301526110c981610e33565b9050919050565b600060208201905081810360008301526110e981610e56565b9050919050565b6000602082019050818103600083015261110981610e9c565b9050919050565b6000602082019050818103600083015261112981610ebf565b9050919050565b6000602082019050818103600083015261114981610ee2565b9050919050565b6000602082019050818103600083015261116981610f05565b9050919050565b60006020820190506111856000830184610f37565b92915050565b6000819050919050565b6000819050919050565b6000819050919050565b600060029050919050565b600060029050919050565b600060039050919050565b6000602082019050919050565b6000602082019050919050565b6000602082019050919050565b600081905092915050565b600081905092915050565b600081905092915050565b600081905092915050565b600081905092915050565b600082825260208201905092915050565b60006112448261131d565b915061124f8361131d565b9250827fffffffffffffffffffffffffffffffffffffffffffffffffffffffffffffffff0382111561128457611283611327565b5b828201905092915050565b600061129a8261131d565b91506112a58361131d565b9250828210156112b8576112b7611327565b5b828203905092915050565b60006112ce826112fd565b9050919050565b60006112e0826112fd565b9050919050565b60008115159050919050565b6000819050919050565b600073ffffffffffffffffffffffffffffffffffffffff82169050919050565b6000819050919050565b7f4e487b7100000000000000000000000000000000000000000000000000000000600052601160045260246000fd5b7f4e487b7100000000000000000000000000000000000000000000000000000000600052603260045260246000fd5b600080fd5b600080fd5b7f5472616e73666572206661696c65640000000000000000000000000000000000600082015250565b7f546865206e6f74652068617320616c7265616479206265656e207370656e7400600082015250565b7f4465706f736974206d6f726520746f20637265617465206e6f74652121000000600082015250565b7f496e76616c69642064656e6f6d696e6174696f6e000000000000000000000000600082015250565b50565b7f5573656420636f6d6d69746d656e740000000000000000000000000000000000600082015250565b7f496e76616c69642050726f6f6600000000000000000000000000000000000000600082015250565b7f5265656e7472616e637947756172643a207265656e7472616e742063616c6c00600082015250565b7f556e75736564204e6f7465000000000000000000000000000000000000000000600082015250565b6114e3816112c3565b81146114ee57600080fd5b50565b6114fa816112e7565b811461150557600080fd5b50565b611511816112f3565b811461151c57600080fd5b50565b6115288161131d565b811461153357600080fd5b5056fea2646970667358221220f60e4a97087cdcf394574ee065162efb435df7ec4bfd1fdb7eeb597ec596b6d064736f6c63430008060033",
  "linkReferences": {},
  "deployedLinkReferences": {}
}