{
  "_format": "hh-sol-artifact-1",
  "contractName": "Main",
  "sourceName": "contracts/Main.sol",
  "abi": [
    {
      "inputs": [],
      "stateMutability": "nonpayable",
      "type": "constructor"
    },
    {
      "anonymous": false,
      "inputs": [
        {
          "indexed": false,
          "internalType": "address",
          "name": "creator",
          "type": "address"
        },
        {
          "indexed": false,
          "internalType": "uint256",
          "name": "amount",
          "type": "uint256"
        }
      ],
      "name": "Created",
      "type": "event"
    },
    {
      "inputs": [],
      "name": "_owner",
      "outputs": [
        {
          "internalType": "address payable",
          "name": "",
          "type": "address"
        }
      ],
      "stateMutability": "view",
      "type": "function"
    },
    {
      "inputs": [
        {
          "internalType": "uint256[2]",
          "name": "_pA",
          "type": "uint256[2]"
        },
        {
          "internalType": "uint256[2][2]",
          "name": "_pB",
          "type": "uint256[2][2]"
        },
        {
          "internalType": "uint256[2]",
          "name": "_pC",
          "type": "uint256[2]"
        },
        {
          "internalType": "bytes32",
          "name": "_nullifierHash",
          "type": "bytes32"
        },
        {
          "internalType": "bytes32",
          "name": "_commitment",
          "type": "bytes32"
        },
        {
          "internalType": "address",
          "name": "_recipient",
          "type": "address"
        },
        {
          "internalType": "bytes32",
          "name": "new_commitment",
          "type": "bytes32"
        }
      ],
      "name": "changeOwner",
      "outputs": [],
      "stateMutability": "nonpayable",
      "type": "function"
    },
    {
      "inputs": [
        {
          "internalType": "uint256[2]",
          "name": "_pA",
          "type": "uint256[2]"
        },
        {
          "internalType": "uint256[2][2]",
          "name": "_pB",
          "type": "uint256[2][2]"
        },
        {
          "internalType": "uint256[2]",
          "name": "_pC",
          "type": "uint256[2]"
        },
        {
          "internalType": "bytes32",
          "name": "_nullifierHash",
          "type": "bytes32"
        },
        {
          "internalType": "bytes32",
          "name": "_commitment",
          "type": "bytes32"
        },
        {
          "internalType": "address",
          "name": "_recipient",
          "type": "address"
        }
      ],
      "name": "claim",
      "outputs": [],
      "stateMutability": "nonpayable",
      "type": "function"
    },
    {
      "inputs": [
        {
          "internalType": "bytes32",
          "name": "",
          "type": "bytes32"
        }
      ],
      "name": "commitments",
      "outputs": [
        {
          "internalType": "bool",
          "name": "used",
          "type": "bool"
        },
        {
          "internalType": "bool",
          "name": "verified",
          "type": "bool"
        },
        {
          "internalType": "address",
          "name": "owner",
          "type": "address"
        },
        {
          "internalType": "address",
          "name": "recipient",
          "type": "address"
        },
        {
          "internalType": "uint256",
          "name": "createdDate",
          "type": "uint256"
        },
        {
          "internalType": "uint256",
          "name": "spentDate",
          "type": "uint256"
        },
        {
          "internalType": "uint256",
          "name": "denomination",
          "type": "uint256"
        }
      ],
      "stateMutability": "view",
      "type": "function"
    },
    {
      "inputs": [
        {
          "internalType": "bytes32",
          "name": "_commitment",
          "type": "bytes32"
        },
        {
          "internalType": "uint256",
          "name": "denomination",
          "type": "uint256"
        }
      ],
      "name": "createNote",
      "outputs": [],
      "stateMutability": "payable",
      "type": "function"
    },
    {
      "inputs": [
        {
          "internalType": "bytes32",
          "name": "",
          "type": "bytes32"
        }
      ],
      "name": "nullifierHashes",
      "outputs": [
        {
          "internalType": "bool",
          "name": "",
          "type": "bool"
        }
      ],
      "stateMutability": "view",
      "type": "function"
    },
    {
      "inputs": [
        {
          "internalType": "uint256[2]",
          "name": "_pA",
          "type": "uint256[2]"
        },
        {
          "internalType": "uint256[2][2]",
          "name": "_pB",
          "type": "uint256[2][2]"
        },
        {
          "internalType": "uint256[2]",
          "name": "_pC",
          "type": "uint256[2]"
        },
        {
          "internalType": "bytes32",
          "name": "_nullifierHash",
          "type": "bytes32"
        },
        {
          "internalType": "bytes32",
          "name": "_commitment",
          "type": "bytes32"
        },
        {
          "internalType": "address",
          "name": "_recipient",
          "type": "address"
        }
      ],
      "name": "verify",
      "outputs": [
        {
          "internalType": "bool",
          "name": "",
          "type": "bool"
        }
      ],
      "stateMutability": "view",
      "type": "function"
    }
  ],
  "bytecode": "0x608060405234801561001057600080fd5b5060016000819055506000604051610027906100ce565b604051809103906000f080158015610043573d6000803e3d6000fd5b50905080600460006101000a81548173ffffffffffffffffffffffffffffffffffffffff021916908373ffffffffffffffffffffffffffffffffffffffff16021790555033600360006101000a81548173ffffffffffffffffffffffffffffffffffffffff021916908373ffffffffffffffffffffffffffffffffffffffff160217905550506100db565b6106e8806117cd83390190565b6116e3806100ea6000396000f3fe6080604052600436106100705760003560e01c8063839df9451161004e578063839df94514610118578063907ff09b1461015b578063b2bdfa7b14610184578063c1dda209146101af57610070565b806317cc915c1461007557806329e5b4a1146100b2578063803b69ed146100ef575b600080fd5b34801561008157600080fd5b5061009c60048036038101906100979190610e79565b6101cb565b6040516100a99190611235565b60405180910390f35b3480156100be57600080fd5b506100d960048036038101906100d49190610d14565b6101eb565b6040516100e69190611235565b60405180910390f35b3480156100fb57600080fd5b5061011660048036038101906101119190610da5565b6103f1565b005b34801561012457600080fd5b5061013f600480360381019061013a9190610e79565b6106c5565b6040516101529796959493929190611250565b60405180910390f35b34801561016757600080fd5b50610182600480360381019061017d9190610d14565b610761565b005b34801561019057600080fd5b50610199610a5e565b6040516101a691906111aa565b60405180910390f35b6101c960048036038101906101c49190610ea6565b610a84565b005b60016020528060005260406000206000915054906101000a900460ff1681565b60006001600085815260200190815260200160002060009054906101000a900460ff161561024e576040517f08c379a0000000000000000000000000000000000000000000000000000000008152600401610245906112df565b60405180910390fd5b600115156002600085815260200190815260200160002060000160009054906101000a900460ff161515146102b8576040517f08c379a00000000000000000000000000000000000000000000000000000000081526004016102af906112ff565b60405180910390fd5b6000600460009054906101000a900473ffffffffffffffffffffffffffffffffffffffff1673ffffffffffffffffffffffffffffffffffffffff166311479fea89898960405180606001604052808b60001c81526020018a60001c81526020018973ffffffffffffffffffffffffffffffffffffffff168152506040518563ffffffff1660e01b815260040161035194939291906111ee565b60206040518083038186803b15801561036957600080fd5b505afa15801561037d573d6000803e3d6000fd5b505050506040513d601f19601f820116820180604052508101906103a19190610e4c565b9050806103e3576040517f08c379a00000000000000000000000000000000000000000000000000000000081526004016103da9061139f565b60405180910390fd5b809150509695505050505050565b6103f9610c22565b6001600085815260200190815260200160002060009054906101000a900460ff161561045a576040517f08c379a0000000000000000000000000000000000000000000000000000000008152600401610451906112df565b60405180910390fd5b600115156002600085815260200190815260200160002060000160009054906101000a900460ff161515146104c4576040517f08c379a00000000000000000000000000000000000000000000000000000000081526004016104bb906112ff565b60405180910390fd5b6000600460009054906101000a900473ffffffffffffffffffffffffffffffffffffffff1673ffffffffffffffffffffffffffffffffffffffff166311479fea89898960405180606001604052808b60001c81526020018a60001c81526020018973ffffffffffffffffffffffffffffffffffffffff168152506040518563ffffffff1660e01b815260040161055d94939291906111ee565b60206040518083038186803b15801561057557600080fd5b505afa158015610589573d6000803e3d6000fd5b505050506040513d601f19601f820116820180604052508101906105ad9190610e4c565b9050806105ef576040517f08c379a00000000000000000000000000000000000000000000000000000000081526004016105e69061137f565b60405180910390fd5b61060f826002600087815260200190815260200160002060040154610a84565b60026000858152602001908152602001600020600080820160006101000a81549060ff02191690556000820160016101000a81549060ff02191690556000820160026101000a81549073ffffffffffffffffffffffffffffffffffffffff02191690556001820160006101000a81549073ffffffffffffffffffffffffffffffffffffffff02191690556002820160009055600382016000905560048201600090555050506106bc610c72565b50505050505050565b60026020528060005260406000206000915090508060000160009054906101000a900460ff16908060000160019054906101000a900460ff16908060000160029054906101000a900473ffffffffffffffffffffffffffffffffffffffff16908060010160009054906101000a900473ffffffffffffffffffffffffffffffffffffffff16908060020154908060030154908060040154905087565b610769610c22565b6001600084815260200190815260200160002060009054906101000a900460ff16156107ca576040517f08c379a00000000000000000000000000000000000000000000000000000000081526004016107c1906112df565b60405180910390fd5b600115156002600084815260200190815260200160002060000160009054906101000a900460ff16151514610834576040517f08c379a000000000000000000000000000000000000000000000000000000000815260040161082b906112bf565b60405180910390fd5b6000600460009054906101000a900473ffffffffffffffffffffffffffffffffffffffff1673ffffffffffffffffffffffffffffffffffffffff166311479fea88888860405180606001604052808a60001c81526020018960001c81526020018873ffffffffffffffffffffffffffffffffffffffff168152506040518563ffffffff1660e01b81526004016108cd94939291906111ee565b60206040518083038186803b1580156108e557600080fd5b505afa1580156108f9573d6000803e3d6000fd5b505050506040513d601f19601f8201168201806040525081019061091d9190610e4c565b90508061095f576040517f08c379a00000000000000000000000000000000000000000000000000000000081526004016109569061137f565b60405180910390fd5b60008273ffffffffffffffffffffffffffffffffffffffff16600260008681526020019081526020016000206004015460405161099b90611195565b60006040518083038185875af1925050503d80600081146109d8576040519150601f19603f3d011682016040523d82523d6000602084013e6109dd565b606091505b5050905080610a21576040517f08c379a0000000000000000000000000000000000000000000000000000000008152600401610a189061133f565b60405180910390fd5b600180600087815260200190815260200160002060006101000a81548160ff0219169083151502179055505050610a56610c72565b505050505050565b600360009054906101000a900473ffffffffffffffffffffffffffffffffffffffff1681565b6002600083815260200190815260200160002060000160009054906101000a900460ff1615610ae8576040517f08c379a0000000000000000000000000000000000000000000000000000000008152600401610adf9061135f565b60405180910390fd5b60008111610b2b576040517f08c379a0000000000000000000000000000000000000000000000000000000008152600401610b229061131f565b60405180910390fd5b60016002600084815260200190815260200160002060000160006101000a81548160ff021916908315150217905550336002600084815260200190815260200160002060000160026101000a81548173ffffffffffffffffffffffffffffffffffffffff021916908373ffffffffffffffffffffffffffffffffffffffff1602179055504260026000848152602001908152602001600020600201819055508060026000848152602001908152602001600020600401819055507f0ce3610e89a4bb9ec9359763f99110ed52a4abaea0b62028a1637e242ca2768b3334604051610c169291906111c5565b60405180910390a15050565b60026000541415610c68576040517f08c379a0000000000000000000000000000000000000000000000000000000008152600401610c5f906113bf565b60405180910390fd5b6002600081905550565b6001600081905550565b600081359050610c8b81611651565b92915050565b600081905082604060020282011115610cad57610cac6114d3565b5b92915050565b600081905082602060020282011115610ccf57610cce6114d3565b5b92915050565b600081519050610ce481611668565b92915050565b600081359050610cf98161167f565b92915050565b600081359050610d0e81611696565b92915050565b6000806000806000806101608789031215610d3257610d316114d8565b5b6000610d4089828a01610cb3565b9650506040610d5189828a01610c91565b95505060c0610d6289828a01610cb3565b945050610100610d7489828a01610cea565b935050610120610d8689828a01610cea565b925050610140610d9889828a01610c7c565b9150509295509295509295565b6000806000806000806000610180888a031215610dc557610dc46114d8565b5b6000610dd38a828b01610cb3565b9750506040610de48a828b01610c91565b96505060c0610df58a828b01610cb3565b955050610100610e078a828b01610cea565b945050610120610e198a828b01610cea565b935050610140610e2b8a828b01610c7c565b925050610160610e3d8a828b01610cea565b91505092959891949750929550565b600060208284031215610e6257610e616114d8565b5b6000610e7084828501610cd5565b91505092915050565b600060208284031215610e8f57610e8e6114d8565b5b6000610e9d84828501610cea565b91505092915050565b60008060408385031215610ebd57610ebc6114d8565b5b6000610ecb85828601610cea565b9250506020610edc85828601610cff565b9150509250929050565b6000610ef28383610f93565b60408301905092915050565b6000610f0a8383611177565b60208301905092915050565b610f1f81611472565b82525050565b610f2e81611460565b82525050565b610f3d816113f3565b610f478184611423565b9250610f52826113df565b8060005b83811015610f8b57610f688284611455565b610f728782610ee6565b9650610f7d83611409565b925050600181019050610f56565b505050505050565b610f9f604083836114c4565b5050565b610faf604083836114c4565b5050565b610fbc816113fe565b610fc6818461142e565b9250610fd1826113e9565b8060005b83811015611002578151610fe98782610efe565b9650610ff483611416565b925050600181019050610fd5565b505050505050565b61101381611484565b82525050565b6000611026601283611444565b9150611031826114dd565b602082019050919050565b6000611049601983611444565b915061105482611506565b602082019050919050565b600061106c601283611444565b91506110778261152f565b602082019050919050565b600061108f601483611444565b915061109a82611558565b602082019050919050565b60006110b2601283611444565b91506110bd82611581565b602082019050919050565b60006110d5600083611439565b91506110e0826115aa565b600082019050919050565b60006110f8600f83611444565b9150611103826115ad565b602082019050919050565b600061111b600783611444565b9150611126826115d6565b602082019050919050565b600061113e600d83611444565b9150611149826115ff565b602082019050919050565b6000611161601f83611444565b915061116c82611628565b602082019050919050565b611180816114ba565b82525050565b61118f816114ba565b82525050565b60006111a0826110c8565b9150819050919050565b60006020820190506111bf6000830184610f16565b92915050565b60006040820190506111da6000830185610f25565b6111e76020830184611186565b9392505050565b6000610160820190506112046000830187610fa3565b6112116040830186610f34565b61121e60c0830185610fa3565b61122c610100830184610fb3565b95945050505050565b600060208201905061124a600083018461100a565b92915050565b600060e082019050611265600083018a61100a565b611272602083018961100a565b61127f6040830188610f25565b61128c6060830187610f25565b6112996080830186611186565b6112a660a0830185611186565b6112b360c0830184611186565b98975050505050505050565b600060208201905081810360008301526112d881611019565b9050919050565b600060208201905081810360008301526112f88161103c565b9050919050565b600060208201905081810360008301526113188161105f565b9050919050565b6000602082019050818103600083015261133881611082565b9050919050565b60006020820190508181036000830152611358816110a5565b9050919050565b60006020820190508181036000830152611378816110eb565b9050919050565b600060208201905081810360008301526113988161110e565b9050919050565b600060208201905081810360008301526113b881611131565b9050919050565b600060208201905081810360008301526113d881611154565b9050919050565b6000819050919050565b6000819050919050565b600060029050919050565b600060039050919050565b6000604082019050919050565b6000602082019050919050565b600081905092915050565b600081905092915050565b600081905092915050565b600082825260208201905092915050565b600082905092915050565b600061146b8261149a565b9050919050565b600061147d8261149a565b9050919050565b60008115159050919050565b6000819050919050565b600073ffffffffffffffffffffffffffffffffffffffff82169050919050565b6000819050919050565b82818337600083830152505050565b600080fd5b600080fd5b7f496e76616c696420636f6d6d69746d656e740000000000000000000000000000600082015250565b7f546865206e6f746520697320616c7265616479207370656e7400000000000000600082015250565b7f696e76616c696420636f6d6d69746d656e740000000000000000000000000000600082015250565b7f496e76616c69642064656e6f6d696e6174696f6e000000000000000000000000600082015250565b7f6661696c6564207472616e73616374696f6e0000000000000000000000000000600082015250565b50565b7f5573656420636f6d6d69746d656e740000000000000000000000000000000000600082015250565b7f496e76616c696400000000000000000000000000000000000000000000000000600082015250565b7f496e76616c69642050726f6f6600000000000000000000000000000000000000600082015250565b7f5265656e7472616e637947756172643a207265656e7472616e742063616c6c00600082015250565b61165a81611460565b811461166557600080fd5b50565b61167181611484565b811461167c57600080fd5b50565b61168881611490565b811461169357600080fd5b50565b61169f816114ba565b81146116aa57600080fd5b5056fea264697066735822122001d351bfb00c499a26918c63023895af886b0422075106b6364569ca7d9be00564736f6c63430008060033608060405234801561001057600080fd5b506106c8806100206000396000f3fe608060405234801561001057600080fd5b506004361061002b5760003560e01c806311479fea14610030575b600080fd5b61004a600480360381019061004591906105e9565b610060565b6040516100579190610661565b60405180910390f35b600061052d565b7f30644e72e131a029b85045b68181585d97816a916871ca8d3c208c16d87cfd478110610098576000805260206000f35b50565b600060405183815284602082015285604082015260408160608360076107d05a03fa9150816100ce576000805260206000f35b825160408201526020830151606082015260408360808360066107d05a03fa9150816100fe576000805260206000f35b505050505050565b600060808601600087017f2159b6bce1e97495b0b8fce18a1b1cb5e50e07b686a975bbc48ceaf31e54c11f81527f2a2c609f9002324d9cedc9be26f90681d0f13c38781b17b8e7055eedad7e23c160208201526101a960008801357f096f28e7927eda1d7de49adf664b5181152e60d280c63aecd6420a06c925eeb27f018114187311326853bcb43e8e61c4f825fa38001c988c54360a54dfdd5af1698461009b565b6101f960208801357f1c9d642101a5e90a1961bdf4be9985e53d89844c8386af8433ab757ec46597147f293ef357093ddd736bd9da5d0aba6ce7c87d040eefddf3e8e73a07d5299890ba8461009b565b61024960408801357f100244c92ae7f36a03c16a68c51f96ed3a0cfadee58c1c5644499a9cf20d3ae57f08097f1af2eb1b4090647b30ca14a1537f7d26c338b6a636cdb22ed95e446b6a8461009b565b833582527f30644e72e131a029b85045b68181585d97816a916871ca8d3c208c16d87cfd4760208501357f30644e72e131a029b85045b68181585d97816a916871ca8d3c208c16d87cfd4703066020830152843560408301526020850135606083015260408501356080830152606085013560a08301527f235bc1a78005e766c1cb321cc512916cb88b4b702328fd14785779b31150c79760c08301527f0a6f8e7b07cd37cda0aa0b337563b27e824c504b9572c0362f5f73ee9f8c0dae60e08301527f0772a8fcbb359893ce31e631f2bb08eb34ac12e6e2344eb6ada5ef2e4836c9996101008301527f168d1ea3b055fc9b22d26430bf0c0a48f8a9f65e7c061c855194aed5b5a694566101208301527f2018614921a5648fc3ec42edd81ba00c68a83374f0539c579ac97cb5cb93b39c6101408301527f1c1aff6763daac915e10dc72011ab19dd884e1b291d9d88f81d840458f218f31610160830152600088015161018083015260206000018801516101a08301527f198e9393920d483a7260bfb731fb5d25f1aa493335a9e71297e485b7aef312c26101c08301527f1800deef121f1e76426a00665e5c4479674322d4f75edadd46debd5cd992f6ed6101e08301527f090689d0585ff075ec9e99ad690c3395bc4b313370b38ef355acdadcd122975b6102008301527f12c85ea5db8c6deb4aab71808dcb408fe3d1e7690c43d37b4ce6cc0166fa7daa610220830152853561024083015260208601356102608301527f2bf4a224a8e54afe8d47a082c3ca434a0c7a61e87da35300bc80a9afc24bd2fc6102808301527f0f46052d0ec21236dad36a802b4f00b41a6ce2feea4a0764b60ddd0d78c954cf6102a08301527f1c7c507349df1e985a095b11d74ee5c5fe72fd76548adb1071408976b03585246102c08301527f1723c516d667e2023388ad0e24fa92b608a004b4ea1297f5f76cce4270aa4e046102e08301526020826103008460086107d05a03fa82518116935050505095945050505050565b60405161038081016040526105456000840135610067565b6105526020840135610067565b61055f6040840135610067565b61056c6060840135610067565b610579818486888a610106565b8060005260206000f35b60008190508260406002028201111561059f5761059e610688565b5b92915050565b6000819050826020600202820111156105c1576105c0610688565b5b92915050565b6000819050826020600302820111156105e3576105e2610688565b5b92915050565b60008060008061016085870312156106045761060361068d565b5b6000610612878288016105a5565b945050604061062387828801610583565b93505060c0610634878288016105a5565b925050610100610646878288016105c7565b91505092959194509250565b61065b8161067c565b82525050565b60006020820190506106766000830184610652565b92915050565b60008115159050919050565b600080fd5b600080fdfea26469706673582212206a955e9f99547f542c66e15f929bd4519fd8bcb73e52a7042e7824ea72715d5664736f6c63430008060033",
  "linkReferences": {},
  "deployedLinkReferences": {}
}