{
  "_format": "hh-sol-artifact-1",
  "contractName": "Main",
  "sourceName": "contracts/Main.sol",
  "abi": [
    {
      "inputs": [],
      "stateMutability": "nonpayable",
      "type": "constructor"
    },
    {
      "anonymous": false,
      "inputs": [
        {
          "indexed": false,
          "internalType": "address",
          "name": "creator",
          "type": "address"
        },
        {
          "indexed": false,
          "internalType": "uint256",
          "name": "amount",
          "type": "uint256"
        }
      ],
      "name": "Created",
      "type": "event"
    },
    {
      "inputs": [],
      "name": "_owner",
      "outputs": [
        {
          "internalType": "address payable",
          "name": "",
          "type": "address"
        }
      ],
      "stateMutability": "view",
      "type": "function"
    },
    {
      "inputs": [
        {
          "internalType": "uint256[2]",
          "name": "_pA",
          "type": "uint256[2]"
        },
        {
          "internalType": "uint256[2][2]",
          "name": "_pB",
          "type": "uint256[2][2]"
        },
        {
          "internalType": "uint256[2]",
          "name": "_pC",
          "type": "uint256[2]"
        },
        {
          "internalType": "bytes32",
          "name": "_nullifierHash",
          "type": "bytes32"
        },
        {
          "internalType": "bytes32",
          "name": "_commitment",
          "type": "bytes32"
        },
        {
          "internalType": "address",
          "name": "_recipient",
          "type": "address"
        },
        {
          "internalType": "bytes",
          "name": "signature",
          "type": "bytes"
        }
      ],
      "name": "changeOwner",
      "outputs": [],
      "stateMutability": "nonpayable",
      "type": "function"
    },
    {
      "inputs": [
        {
          "internalType": "uint256[2]",
          "name": "_pA",
          "type": "uint256[2]"
        },
        {
          "internalType": "uint256[2][2]",
          "name": "_pB",
          "type": "uint256[2][2]"
        },
        {
          "internalType": "uint256[2]",
          "name": "_pC",
          "type": "uint256[2]"
        },
        {
          "internalType": "bytes32",
          "name": "_nullifierHash",
          "type": "bytes32"
        },
        {
          "internalType": "bytes32",
          "name": "_commitment",
          "type": "bytes32"
        },
        {
          "internalType": "address",
          "name": "_recipient",
          "type": "address"
        }
      ],
      "name": "claim",
      "outputs": [],
      "stateMutability": "nonpayable",
      "type": "function"
    },
    {
      "inputs": [
        {
          "internalType": "bytes32",
          "name": "",
          "type": "bytes32"
        }
      ],
      "name": "commitments",
      "outputs": [
        {
          "internalType": "bool",
          "name": "used",
          "type": "bool"
        },
        {
          "internalType": "bool",
          "name": "verified",
          "type": "bool"
        },
        {
          "internalType": "address",
          "name": "owner",
          "type": "address"
        },
        {
          "internalType": "address",
          "name": "recipient",
          "type": "address"
        },
        {
          "internalType": "uint256",
          "name": "createdDate",
          "type": "uint256"
        },
        {
          "internalType": "uint256",
          "name": "spentDate",
          "type": "uint256"
        },
        {
          "internalType": "uint256",
          "name": "denomination",
          "type": "uint256"
        }
      ],
      "stateMutability": "view",
      "type": "function"
    },
    {
      "inputs": [
        {
          "internalType": "bytes32",
          "name": "_commitment",
          "type": "bytes32"
        },
        {
          "internalType": "uint256",
          "name": "denomination",
          "type": "uint256"
        }
      ],
      "name": "createNote",
      "outputs": [],
      "stateMutability": "payable",
      "type": "function"
    },
    {
      "inputs": [
        {
          "internalType": "bytes32",
          "name": "",
          "type": "bytes32"
        }
      ],
      "name": "nullifierHashes",
      "outputs": [
        {
          "internalType": "bool",
          "name": "",
          "type": "bool"
        }
      ],
      "stateMutability": "view",
      "type": "function"
    },
    {
      "inputs": [
        {
          "internalType": "uint256[2]",
          "name": "_pA",
          "type": "uint256[2]"
        },
        {
          "internalType": "uint256[2][2]",
          "name": "_pB",
          "type": "uint256[2][2]"
        },
        {
          "internalType": "uint256[2]",
          "name": "_pC",
          "type": "uint256[2]"
        },
        {
          "internalType": "bytes32",
          "name": "_nullifierHash",
          "type": "bytes32"
        },
        {
          "internalType": "bytes32",
          "name": "_commitment",
          "type": "bytes32"
        },
        {
          "internalType": "address",
          "name": "_recipient",
          "type": "address"
        }
      ],
      "name": "verify",
      "outputs": [
        {
          "internalType": "bool",
          "name": "",
          "type": "bool"
        }
      ],
      "stateMutability": "view",
      "type": "function"
    }
  ],
  "bytecode": "0x608060405234801561001057600080fd5b5060016000819055506000604051610027906100ce565b604051809103906000f080158015610043573d6000803e3d6000fd5b50905080600460006101000a81548173ffffffffffffffffffffffffffffffffffffffff021916908373ffffffffffffffffffffffffffffffffffffffff16021790555033600360006101000a81548173ffffffffffffffffffffffffffffffffffffffff021916908373ffffffffffffffffffffffffffffffffffffffff160217905550506100db565b6106e88061196383390190565b611879806100ea6000396000f3fe6080604052600436106100705760003560e01c8063839df9451161004e578063839df94514610118578063907ff09b1461015b578063b2bdfa7b14610184578063c1dda209146101af57610070565b806317cc915c1461007557806329e5b4a1146100b257806349bf0ba7146100ef575b600080fd5b34801561008157600080fd5b5061009c60048036038101906100979190610da4565b6101cb565b6040516100a9919061121c565b60405180910390f35b3480156100be57600080fd5b506100d960048036038101906100d49190610c23565b6101eb565b6040516100e6919061121c565b60405180910390f35b3480156100fb57600080fd5b5061011660048036038101906101119190610cb4565b6103f1565b005b34801561012457600080fd5b5061013f600480360381019061013a9190610da4565b610593565b6040516101529796959493929190611237565b60405180910390f35b34801561016757600080fd5b50610182600480360381019061017d9190610c23565b61062f565b005b34801561019057600080fd5b5061019961082c565b6040516101a69190611191565b60405180910390f35b6101c960048036038101906101c49190610dd1565b610852565b005b60016020528060005260406000206000915054906101000a900460ff1681565b60006001600085815260200190815260200160002060009054906101000a900460ff161561024e576040517f08c379a0000000000000000000000000000000000000000000000000000000008152600401610245906112eb565b60405180910390fd5b600115156002600085815260200190815260200160002060000160009054906101000a900460ff161515146102b8576040517f08c379a00000000000000000000000000000000000000000000000000000000081526004016102af9061130b565b60405180910390fd5b6000600460009054906101000a900473ffffffffffffffffffffffffffffffffffffffff1673ffffffffffffffffffffffffffffffffffffffff166311479fea89898960405180606001604052808b60001c81526020018a60001c81526020018973ffffffffffffffffffffffffffffffffffffffff168152506040518563ffffffff1660e01b815260040161035194939291906111d5565b60206040518083038186803b15801561036957600080fd5b505afa15801561037d573d6000803e3d6000fd5b505050506040513d601f19601f820116820180604052508101906103a19190610d77565b9050806103e3576040517f08c379a00000000000000000000000000000000000000000000000000000000081526004016103da906113eb565b60405180910390fd5b809150509695505050505050565b6103f96109f0565b600061042a8460405160200161040f919061113b565b60405160208183030381529060405280519060200120610a40565b90506002600085815260200190815260200160002060000160029054906101000a900473ffffffffffffffffffffffffffffffffffffffff1673ffffffffffffffffffffffffffffffffffffffff166104838284610a70565b73ffffffffffffffffffffffffffffffffffffffff16146104d9576040517f08c379a00000000000000000000000000000000000000000000000000000000081526004016104d0906113cb565b60405180910390fd5b60006104e98989898989896101eb565b90508061052b576040517f08c379a0000000000000000000000000000000000000000000000000000000008152600401610522906113ab565b60405180910390fd5b836002600087815260200190815260200160002060000160026101000a81548173ffffffffffffffffffffffffffffffffffffffff021916908373ffffffffffffffffffffffffffffffffffffffff160217905550505061058a610adf565b50505050505050565b60026020528060005260406000206000915090508060000160009054906101000a900460ff16908060000160019054906101000a900460ff16908060000160029054906101000a900473ffffffffffffffffffffffffffffffffffffffff16908060010160009054906101000a900473ffffffffffffffffffffffffffffffffffffffff16908060020154908060030154908060040154905087565b6106376109f0565b6002600083815260200190815260200160002060000160029054906101000a900473ffffffffffffffffffffffffffffffffffffffff1673ffffffffffffffffffffffffffffffffffffffff163373ffffffffffffffffffffffffffffffffffffffff16146106db576040517f08c379a00000000000000000000000000000000000000000000000000000000081526004016106d29061136b565b60405180910390fd5b60006106eb8787878787876101eb565b90508061072d576040517f08c379a0000000000000000000000000000000000000000000000000000000008152600401610724906113ab565b60405180910390fd5b60008273ffffffffffffffffffffffffffffffffffffffff1660026000868152602001908152602001600020600401546040516107699061117c565b60006040518083038185875af1925050503d80600081146107a6576040519150601f19603f3d011682016040523d82523d6000602084013e6107ab565b606091505b50509050806107ef576040517f08c379a00000000000000000000000000000000000000000000000000000000081526004016107e69061134b565b60405180910390fd5b600180600087815260200190815260200160002060006101000a81548160ff0219169083151502179055505050610824610adf565b505050505050565b600360009054906101000a900473ffffffffffffffffffffffffffffffffffffffff1681565b6002600083815260200190815260200160002060000160009054906101000a900460ff16156108b6576040517f08c379a00000000000000000000000000000000000000000000000000000000081526004016108ad9061138b565b60405180910390fd5b600081116108f9576040517f08c379a00000000000000000000000000000000000000000000000000000000081526004016108f09061132b565b60405180910390fd5b60016002600084815260200190815260200160002060000160006101000a81548160ff021916908315150217905550336002600084815260200190815260200160002060000160026101000a81548173ffffffffffffffffffffffffffffffffffffffff021916908373ffffffffffffffffffffffffffffffffffffffff1602179055504260026000848152602001908152602001600020600201819055508060026000848152602001908152602001600020600401819055507f0ce3610e89a4bb9ec9359763f99110ed52a4abaea0b62028a1637e242ca2768b33346040516109e49291906111ac565b60405180910390a15050565b60026000541415610a36576040517f08c379a0000000000000000000000000000000000000000000000000000000008152600401610a2d9061140b565b60405180910390fd5b6002600081905550565b600081604051602001610a539190611156565b604051602081830303815290604052805190602001209050919050565b600080600080610a7f85610ae9565b92509250925060018684848460405160008152602001604052604051610aa894939291906112a6565b6020604051602081039080840390855afa158015610aca573d6000803e3d6000fd5b50505060206040510351935050505092915050565b6001600081905550565b60008060006041845114610afc57600080fd5b6020840151915060408401519050606084015160001a92509193909250565b6000610b2e610b2984611450565b61142b565b905082815260208101848484011115610b4a57610b49611601565b5b610b5584828561157e565b509392505050565b600081359050610b6c816117e7565b92915050565b600081905082604060020282011115610b8e57610b8d6115fc565b5b92915050565b600081905082602060020282011115610bb057610baf6115fc565b5b92915050565b600081519050610bc5816117fe565b92915050565b600081359050610bda81611815565b92915050565b600082601f830112610bf557610bf46115f7565b5b8135610c05848260208601610b1b565b91505092915050565b600081359050610c1d8161182c565b92915050565b6000806000806000806101608789031215610c4157610c4061160b565b5b6000610c4f89828a01610b94565b9650506040610c6089828a01610b72565b95505060c0610c7189828a01610b94565b945050610100610c8389828a01610bcb565b935050610120610c9589828a01610bcb565b925050610140610ca789828a01610b5d565b9150509295509295509295565b6000806000806000806000610180888a031215610cd457610cd361160b565b5b6000610ce28a828b01610b94565b9750506040610cf38a828b01610b72565b96505060c0610d048a828b01610b94565b955050610100610d168a828b01610bcb565b945050610120610d288a828b01610bcb565b935050610140610d3a8a828b01610b5d565b92505061016088013567ffffffffffffffff811115610d5c57610d5b611606565b5b610d688a828b01610be0565b91505092959891949750929550565b600060208284031215610d8d57610d8c61160b565b5b6000610d9b84828501610bb6565b91505092915050565b600060208284031215610dba57610db961160b565b5b6000610dc884828501610bcb565b91505092915050565b60008060408385031215610de857610de761160b565b5b6000610df685828601610bcb565b9250506020610e0785828601610c0e565b9150509250929050565b6000610e1d8383610ebe565b60408301905092915050565b6000610e35838361110e565b60208301905092915050565b610e4a8161151f565b82525050565b610e598161150d565b82525050565b610e6881611495565b610e7281846114c5565b9250610e7d82611481565b8060005b83811015610eb657610e938284611502565b610e9d8782610e11565b9650610ea8836114ab565b925050600181019050610e81565b505050505050565b610eca6040838361157e565b5050565b610eda6040838361157e565b5050565b610ee7816114a0565b610ef181846114d0565b9250610efc8261148b565b8060005b83811015610f2d578151610f148782610e29565b9650610f1f836114b8565b925050600181019050610f00565b505050505050565b610f3e81611531565b82525050565b610f4d8161153d565b82525050565b610f64610f5f8261153d565b6115be565b82525050565b6000610f77601c836114f7565b9150610f8282611621565b601c82019050919050565b6000610f9a6019836114e6565b9150610fa58261164a565b602082019050919050565b6000610fbd6012836114e6565b9150610fc882611673565b602082019050919050565b6000610fe06014836114e6565b9150610feb8261169c565b602082019050919050565b60006110036012836114e6565b915061100e826116c5565b602082019050919050565b60006110266019836114e6565b9150611031826116ee565b602082019050919050565b60006110496000836114db565b915061105482611717565b600082019050919050565b600061106c600f836114e6565b91506110778261171a565b602082019050919050565b600061108f6007836114e6565b915061109a82611743565b602082019050919050565b60006110b2601b836114e6565b91506110bd8261176c565b602082019050919050565b60006110d5600d836114e6565b91506110e082611795565b602082019050919050565b60006110f8601f836114e6565b9150611103826117be565b602082019050919050565b61111781611567565b82525050565b61112681611567565b82525050565b61113581611571565b82525050565b60006111478284610f53565b60208201915081905092915050565b600061116182610f6a565b915061116d8284610f53565b60208201915081905092915050565b60006111878261103c565b9150819050919050565b60006020820190506111a66000830184610e41565b92915050565b60006040820190506111c16000830185610e50565b6111ce602083018461111d565b9392505050565b6000610160820190506111eb6000830187610ece565b6111f86040830186610e5f565b61120560c0830185610ece565b611213610100830184610ede565b95945050505050565b60006020820190506112316000830184610f35565b92915050565b600060e08201905061124c600083018a610f35565b6112596020830189610f35565b6112666040830188610e50565b6112736060830187610e50565b611280608083018661111d565b61128d60a083018561111d565b61129a60c083018461111d565b98975050505050505050565b60006080820190506112bb6000830187610f44565b6112c8602083018661112c565b6112d56040830185610f44565b6112e26060830184610f44565b95945050505050565b6000602082019050818103600083015261130481610f8d565b9050919050565b6000602082019050818103600083015261132481610fb0565b9050919050565b6000602082019050818103600083015261134481610fd3565b9050919050565b6000602082019050818103600083015261136481610ff6565b9050919050565b6000602082019050818103600083015261138481611019565b9050919050565b600060208201905081810360008301526113a48161105f565b9050919050565b600060208201905081810360008301526113c481611082565b9050919050565b600060208201905081810360008301526113e4816110a5565b9050919050565b60006020820190508181036000830152611404816110c8565b9050919050565b60006020820190508181036000830152611424816110eb565b9050919050565b6000611435611446565b9050611441828261158d565b919050565b6000604051905090565b600067ffffffffffffffff82111561146b5761146a6115c8565b5b61147482611610565b9050602081019050919050565b6000819050919050565b6000819050919050565b600060029050919050565b600060039050919050565b6000604082019050919050565b6000602082019050919050565b600081905092915050565b600081905092915050565b600081905092915050565b600082825260208201905092915050565b600081905092915050565b600082905092915050565b600061151882611547565b9050919050565b600061152a82611547565b9050919050565b60008115159050919050565b6000819050919050565b600073ffffffffffffffffffffffffffffffffffffffff82169050919050565b6000819050919050565b600060ff82169050919050565b82818337600083830152505050565b61159682611610565b810181811067ffffffffffffffff821117156115b5576115b46115c8565b5b80604052505050565b6000819050919050565b7f4e487b7100000000000000000000000000000000000000000000000000000000600052604160045260246000fd5b600080fd5b600080fd5b600080fd5b600080fd5b600080fd5b6000601f19601f8301169050919050565b7f19457468657265756d205369676e6564204d6573736167653a0a333200000000600082015250565b7f546865206e6f746520697320616c7265616479207370656e7400000000000000600082015250565b7f696e76616c696420636f6d6d69746d656e740000000000000000000000000000600082015250565b7f496e76616c69642064656e6f6d696e6174696f6e000000000000000000000000600082015250565b7f6661696c6564207472616e73616374696f6e0000000000000000000000000000600082015250565b7f796f752063616e277420636c61696d2074686973206e6f746500000000000000600082015250565b50565b7f5573656420636f6d6d69746d656e740000000000000000000000000000000000600082015250565b7f496e76616c696400000000000000000000000000000000000000000000000000600082015250565b7f596f7520646f6e2774206861766520636f7272656374206e6f74650000000000600082015250565b7f496e76616c69642050726f6f6600000000000000000000000000000000000000600082015250565b7f5265656e7472616e637947756172643a207265656e7472616e742063616c6c00600082015250565b6117f08161150d565b81146117fb57600080fd5b50565b61180781611531565b811461181257600080fd5b50565b61181e8161153d565b811461182957600080fd5b50565b61183581611567565b811461184057600080fd5b5056fea2646970667358221220f4988551ca8c3cb10aa8e126230a5ce37281fcd16464f5268e231463d1975ae164736f6c63430008060033608060405234801561001057600080fd5b506106c8806100206000396000f3fe608060405234801561001057600080fd5b506004361061002b5760003560e01c806311479fea14610030575b600080fd5b61004a600480360381019061004591906105e9565b610060565b6040516100579190610661565b60405180910390f35b600061052d565b7f30644e72e131a029b85045b68181585d97816a916871ca8d3c208c16d87cfd478110610098576000805260206000f35b50565b600060405183815284602082015285604082015260408160608360076107d05a03fa9150816100ce576000805260206000f35b825160408201526020830151606082015260408360808360066107d05a03fa9150816100fe576000805260206000f35b505050505050565b600060808601600087017f2159b6bce1e97495b0b8fce18a1b1cb5e50e07b686a975bbc48ceaf31e54c11f81527f2a2c609f9002324d9cedc9be26f90681d0f13c38781b17b8e7055eedad7e23c160208201526101a960008801357f096f28e7927eda1d7de49adf664b5181152e60d280c63aecd6420a06c925eeb27f018114187311326853bcb43e8e61c4f825fa38001c988c54360a54dfdd5af1698461009b565b6101f960208801357f1c9d642101a5e90a1961bdf4be9985e53d89844c8386af8433ab757ec46597147f293ef357093ddd736bd9da5d0aba6ce7c87d040eefddf3e8e73a07d5299890ba8461009b565b61024960408801357f100244c92ae7f36a03c16a68c51f96ed3a0cfadee58c1c5644499a9cf20d3ae57f08097f1af2eb1b4090647b30ca14a1537f7d26c338b6a636cdb22ed95e446b6a8461009b565b833582527f30644e72e131a029b85045b68181585d97816a916871ca8d3c208c16d87cfd4760208501357f30644e72e131a029b85045b68181585d97816a916871ca8d3c208c16d87cfd4703066020830152843560408301526020850135606083015260408501356080830152606085013560a08301527f235bc1a78005e766c1cb321cc512916cb88b4b702328fd14785779b31150c79760c08301527f0a6f8e7b07cd37cda0aa0b337563b27e824c504b9572c0362f5f73ee9f8c0dae60e08301527f0772a8fcbb359893ce31e631f2bb08eb34ac12e6e2344eb6ada5ef2e4836c9996101008301527f168d1ea3b055fc9b22d26430bf0c0a48f8a9f65e7c061c855194aed5b5a694566101208301527f2018614921a5648fc3ec42edd81ba00c68a83374f0539c579ac97cb5cb93b39c6101408301527f1c1aff6763daac915e10dc72011ab19dd884e1b291d9d88f81d840458f218f31610160830152600088015161018083015260206000018801516101a08301527f198e9393920d483a7260bfb731fb5d25f1aa493335a9e71297e485b7aef312c26101c08301527f1800deef121f1e76426a00665e5c4479674322d4f75edadd46debd5cd992f6ed6101e08301527f090689d0585ff075ec9e99ad690c3395bc4b313370b38ef355acdadcd122975b6102008301527f12c85ea5db8c6deb4aab71808dcb408fe3d1e7690c43d37b4ce6cc0166fa7daa610220830152853561024083015260208601356102608301527f2bf4a224a8e54afe8d47a082c3ca434a0c7a61e87da35300bc80a9afc24bd2fc6102808301527f0f46052d0ec21236dad36a802b4f00b41a6ce2feea4a0764b60ddd0d78c954cf6102a08301527f1c7c507349df1e985a095b11d74ee5c5fe72fd76548adb1071408976b03585246102c08301527f1723c516d667e2023388ad0e24fa92b608a004b4ea1297f5f76cce4270aa4e046102e08301526020826103008460086107d05a03fa82518116935050505095945050505050565b60405161038081016040526105456000840135610067565b6105526020840135610067565b61055f6040840135610067565b61056c6060840135610067565b610579818486888a610106565b8060005260206000f35b60008190508260406002028201111561059f5761059e610688565b5b92915050565b6000819050826020600202820111156105c1576105c0610688565b5b92915050565b6000819050826020600302820111156105e3576105e2610688565b5b92915050565b60008060008061016085870312156106045761060361068d565b5b6000610612878288016105a5565b945050604061062387828801610583565b93505060c0610634878288016105a5565b925050610100610646878288016105c7565b91505092959194509250565b61065b8161067c565b82525050565b60006020820190506106766000830184610652565b92915050565b60008115159050919050565b600080fd5b600080fdfea26469706673582212206a955e9f99547f542c66e15f929bd4519fd8bcb73e52a7042e7824ea72715d5664736f6c63430008060033",
  "linkReferences": {},
  "deployedLinkReferences": {}
}