{
  "_format": "hh-sol-artifact-1",
  "contractName": "Main",
  "sourceName": "contracts/Main.sol",
  "abi": [
    {
      "inputs": [
        {
          "internalType": "contract Iverifier",
          "name": "_verifier",
          "type": "address"
        }
      ],
      "stateMutability": "nonpayable",
      "type": "constructor"
    },
    {
      "anonymous": false,
      "inputs": [
        {
          "indexed": false,
          "internalType": "address",
          "name": "creator",
          "type": "address"
        },
        {
          "indexed": false,
          "internalType": "uint256",
          "name": "amount",
          "type": "uint256"
        }
      ],
      "name": "Created",
      "type": "event"
    },
    {
      "inputs": [],
      "name": "_owner",
      "outputs": [
        {
          "internalType": "address payable",
          "name": "",
          "type": "address"
        }
      ],
      "stateMutability": "view",
      "type": "function"
    },
    {
      "inputs": [
        {
          "internalType": "uint256",
          "name": "denomination",
          "type": "uint256"
        }
      ],
      "name": "calculateFee",
      "outputs": [
        {
          "internalType": "uint256",
          "name": "fee",
          "type": "uint256"
        }
      ],
      "stateMutability": "pure",
      "type": "function"
    },
    {
      "inputs": [
        {
          "internalType": "bytes32",
          "name": "",
          "type": "bytes32"
        }
      ],
      "name": "commitments",
      "outputs": [
        {
          "internalType": "bool",
          "name": "used",
          "type": "bool"
        },
        {
          "internalType": "address",
          "name": "creator",
          "type": "address"
        },
        {
          "internalType": "address",
          "name": "recipient",
          "type": "address"
        },
        {
          "internalType": "uint256",
          "name": "createdDate",
          "type": "uint256"
        },
        {
          "internalType": "uint256",
          "name": "spentDate",
          "type": "uint256"
        },
        {
          "internalType": "uint256",
          "name": "denomination",
          "type": "uint256"
        }
      ],
      "stateMutability": "view",
      "type": "function"
    },
    {
      "inputs": [
        {
          "internalType": "bytes32",
          "name": "_commitment",
          "type": "bytes32"
        },
        {
          "internalType": "uint256",
          "name": "denomination",
          "type": "uint256"
        }
      ],
      "name": "createNote",
      "outputs": [],
      "stateMutability": "payable",
      "type": "function"
    },
    {
      "inputs": [],
      "name": "feeDivider",
      "outputs": [
        {
          "internalType": "uint256",
          "name": "",
          "type": "uint256"
        }
      ],
      "stateMutability": "view",
      "type": "function"
    },
    {
      "inputs": [
        {
          "internalType": "bytes32",
          "name": "_nullifierHash",
          "type": "bytes32"
        }
      ],
      "name": "isSpent",
      "outputs": [
        {
          "internalType": "bool",
          "name": "",
          "type": "bool"
        }
      ],
      "stateMutability": "view",
      "type": "function"
    },
    {
      "inputs": [
        {
          "internalType": "bytes32",
          "name": "",
          "type": "bytes32"
        }
      ],
      "name": "nullifierHashes",
      "outputs": [
        {
          "internalType": "bool",
          "name": "",
          "type": "bool"
        }
      ],
      "stateMutability": "view",
      "type": "function"
    },
    {
      "inputs": [],
      "name": "verifier",
      "outputs": [
        {
          "internalType": "contract Iverifier",
          "name": "",
          "type": "address"
        }
      ],
      "stateMutability": "view",
      "type": "function"
    },
    {
      "inputs": [
        {
          "internalType": "uint256[8]",
          "name": "_proof",
          "type": "uint256[8]"
        },
        {
          "internalType": "bytes32",
          "name": "_nullifierHash",
          "type": "bytes32"
        },
        {
          "internalType": "bytes32",
          "name": "_commitment",
          "type": "bytes32"
        },
        {
          "internalType": "address",
          "name": "_recipient",
          "type": "address"
        }
      ],
      "name": "withdraw",
      "outputs": [],
      "stateMutability": "nonpayable",
      "type": "function"
    }
  ],
  "bytecode": "0x60a06040523480156200001157600080fd5b5060405162001871380380620018718339818101604052810190620000379190620000d5565b60016000819055508073ffffffffffffffffffffffffffffffffffffffff1660808173ffffffffffffffffffffffffffffffffffffffff1660601b8152505033600360006101000a81548173ffffffffffffffffffffffffffffffffffffffff021916908373ffffffffffffffffffffffffffffffffffffffff160217905550506200016e565b600081519050620000cf8162000154565b92915050565b600060208284031215620000ee57620000ed6200014f565b5b6000620000fe84828501620000be565b91505092915050565b600062000114826200012f565b9050919050565b6000620001288262000107565b9050919050565b600073ffffffffffffffffffffffffffffffffffffffff82169050919050565b600080fd5b6200015f816200011b565b81146200016b57600080fd5b50565b60805160601c6116dd620001946000396000818161026c01526103ca01526116dd6000f3fe6080604052600436106100865760003560e01c806399a5d7471161005957806399a5d74714610160578063b2bdfa7b1461019d578063bf30438a146101c8578063c1dda209146101f1578063e5285dcc1461020d57610086565b806317cc915c1461008b5780632b7ac3f3146100c8578063839df945146100f3578063917b546c14610135575b600080fd5b34801561009757600080fd5b506100b260048036038101906100ad9190610c0d565b61024a565b6040516100bf919061108b565b60405180910390f35b3480156100d457600080fd5b506100dd61026a565b6040516100ea9190611107565b60405180910390f35b3480156100ff57600080fd5b5061011a60048036038101906101159190610c0d565b61028e565b60405161012c969594939291906110a6565b60405180910390f35b34801561014157600080fd5b5061014a610317565b6040516101579190611242565b60405180910390f35b34801561016c57600080fd5b5061018760048036038101906101829190610c7a565b61031c565b6040516101949190611242565b60405180910390f35b3480156101a957600080fd5b506101b2610339565b6040516101bf9190611000565b60405180910390f35b3480156101d457600080fd5b506101ef60048036038101906101ea9190610b75565b61035f565b005b61020b60048036038101906102069190610c3a565b61073c565b005b34801561021957600080fd5b50610234600480360381019061022f9190610c0d565b610971565b604051610241919061108b565b60405180910390f35b60016020528060005260406000206000915054906101000a900460ff1681565b7f000000000000000000000000000000000000000000000000000000000000000081565b60026020528060005260406000206000915090508060000160009054906101000a900460ff16908060000160019054906101000a900473ffffffffffffffffffffffffffffffffffffffff16908060010160009054906101000a900473ffffffffffffffffffffffffffffffffffffffff16908060020154908060030154908060040154905086565b606481565b600061033260648361099b90919063ffffffff16565b9050919050565b600360009054906101000a900473ffffffffffffffffffffffffffffffffffffffff1681565b6103676109b1565b6001600084815260200190815260200160002060009054906101000a900460ff16156103c8576040517f08c379a00000000000000000000000000000000000000000000000000000000081526004016103bf90611162565b60405180910390fd5b7f000000000000000000000000000000000000000000000000000000000000000073ffffffffffffffffffffffffffffffffffffffff166311479fea60405180604001604052808760006008811061042357610422611478565b5b602002013581526020018760016008811061044157610440611478565b5b6020020135815250604051806040016040528060405180604001604052808a60026008811061047357610472611478565b5b602002013581526020018a60036008811061049157610490611478565b5b6020020135815250815260200160405180604001604052808a6004600881106104bd576104bc611478565b5b602002013581526020018a6005600881106104db576104da611478565b5b602002013581525081525060405180604001604052808960066008811061050557610504611478565b5b602002013581526020018960076008811061052357610522611478565b5b602002013581525060405180606001604052808960001c81526020018860001c81526020018773ffffffffffffffffffffffffffffffffffffffff168152506040518563ffffffff1660e01b81526004016105819493929190611044565b60206040518083038186803b15801561059957600080fd5b505afa1580156105ad573d6000803e3d6000fd5b505050506040513d601f19601f820116820180604052508101906105d19190610be0565b610610576040517f08c379a0000000000000000000000000000000000000000000000000000000008152600401610607906111e2565b60405180910390fd5b6002600083815260200190815260200160002060000160009054906101000a900460ff16610673576040517f08c379a000000000000000000000000000000000000000000000000000000000815260040161066a90611222565b60405180910390fd5b600180600085815260200190815260200160002060006101000a81548160ff021916908315150217905550806002600084815260200190815260200160002060010160006101000a81548173ffffffffffffffffffffffffffffffffffffffff021916908373ffffffffffffffffffffffffffffffffffffffff16021790555042600260008481526020019081526020016000206003018190555061072e816002600085815260200190815260200160002060040154610a01565b610736610af5565b50505050565b6107446109b1565b6002600083815260200190815260200160002060000160009054906101000a900460ff16156107a8576040517f08c379a000000000000000000000000000000000000000000000000000000000815260040161079f906111c2565b60405180910390fd5b600081116107eb576040517f08c379a00000000000000000000000000000000000000000000000000000000081526004016107e290611182565b60405180910390fd5b60006107f68261031c565b90508082610804919061130b565b3414610845576040517f08c379a000000000000000000000000000000000000000000000000000000000815260040161083c906111a2565b60405180910390fd5b60016002600085815260200190815260200160002060000160006101000a81548160ff021916908315150217905550336002600085815260200190815260200160002060000160016101000a81548173ffffffffffffffffffffffffffffffffffffffff021916908373ffffffffffffffffffffffffffffffffffffffff16021790555042600260008581526020019081526020016000206002018190555081600260008581526020019081526020016000206004018190555061092b600360009054906101000a900473ffffffffffffffffffffffffffffffffffffffff1682610a01565b7f0ce3610e89a4bb9ec9359763f99110ed52a4abaea0b62028a1637e242ca2768b338360405161095c92919061101b565b60405180910390a15061096d610af5565b5050565b60006001600083815260200190815260200160002060009054906101000a900460ff169050919050565b600081836109a99190611361565b905092915050565b600260005414156109f7576040517f08c379a00000000000000000000000000000000000000000000000000000000081526004016109ee90611202565b60405180910390fd5b6002600081905550565b80471015610a44576040517f08c379a0000000000000000000000000000000000000000000000000000000008152600401610a3b90611142565b60405180910390fd5b60008273ffffffffffffffffffffffffffffffffffffffff1682604051610a6a90610feb565b60006040518083038185875af1925050503d8060008114610aa7576040519150601f19603f3d011682016040523d82523d6000602084013e610aac565b606091505b5050905080610af0576040517f08c379a0000000000000000000000000000000000000000000000000000000008152600401610ae790611122565b60405180910390fd5b505050565b6001600081905550565b600081359050610b0e8161164b565b92915050565b600081905082602060080282011115610b3057610b2f6114a7565b5b92915050565b600081519050610b4581611662565b92915050565b600081359050610b5a81611679565b92915050565b600081359050610b6f81611690565b92915050565b6000806000806101608587031215610b9057610b8f6114ac565b5b6000610b9e87828801610b14565b945050610100610bb087828801610b4b565b935050610120610bc287828801610b4b565b925050610140610bd487828801610aff565b91505092959194509250565b600060208284031215610bf657610bf56114ac565b5b6000610c0484828501610b36565b91505092915050565b600060208284031215610c2357610c226114ac565b5b6000610c3184828501610b4b565b91505092915050565b60008060408385031215610c5157610c506114ac565b5b6000610c5f85828601610b4b565b9250506020610c7085828601610b60565b9150509250929050565b600060208284031215610c9057610c8f6114ac565b5b6000610c9e84828501610b60565b91505092915050565b6000610cb38383610d4c565b60408301905092915050565b6000610ccb8383610fcd565b60208301905092915050565b610ce0816113a4565b82525050565b610cef81611392565b82525050565b610cfe8161127b565b610d0881846112c3565b9250610d138261125d565b8060005b83811015610d44578151610d2b8782610ca7565b9650610d368361129c565b925050600181019050610d17565b505050505050565b610d5581611286565b610d5f81846112ce565b9250610d6a82611267565b8060005b83811015610d9b578151610d828782610cbf565b9650610d8d836112a9565b925050600181019050610d6e565b505050505050565b610dac81611286565b610db681846112d9565b9250610dc182611267565b8060005b83811015610df2578151610dd98782610cbf565b9650610de4836112a9565b925050600181019050610dc5565b505050505050565b610e0381611291565b610e0d81846112e4565b9250610e1882611271565b8060005b83811015610e49578151610e308782610cbf565b9650610e3b836112b6565b925050600181019050610e1c565b505050505050565b610e5a816113b6565b82525050565b610e69816113f6565b82525050565b6000610e7c603a836112fa565b9150610e87826114b1565b604082019050919050565b6000610e9f601d836112fa565b9150610eaa82611500565b602082019050919050565b6000610ec2601f836112fa565b9150610ecd82611529565b602082019050919050565b6000610ee56014836112fa565b9150610ef082611552565b602082019050919050565b6000610f08600d836112fa565b9150610f138261157b565b602082019050919050565b6000610f2b6000836112ef565b9150610f36826115a4565b600082019050919050565b6000610f4e600f836112fa565b9150610f59826115a7565b602082019050919050565b6000610f71600d836112fa565b9150610f7c826115d0565b602082019050919050565b6000610f94601f836112fa565b9150610f9f826115f9565b602082019050919050565b6000610fb7600b836112fa565b9150610fc282611622565b602082019050919050565b610fd6816113ec565b82525050565b610fe5816113ec565b82525050565b6000610ff682610f1e565b9150819050919050565b60006020820190506110156000830184610cd7565b92915050565b60006040820190506110306000830185610ce6565b61103d6020830184610fdc565b9392505050565b60006101608201905061105a6000830187610da3565b6110676040830186610cf5565b61107460c0830185610da3565b611082610100830184610dfa565b95945050505050565b60006020820190506110a06000830184610e51565b92915050565b600060c0820190506110bb6000830189610e51565b6110c86020830188610ce6565b6110d56040830187610ce6565b6110e26060830186610fdc565b6110ef6080830185610fdc565b6110fc60a0830184610fdc565b979650505050505050565b600060208201905061111c6000830184610e60565b92915050565b6000602082019050818103600083015261113b81610e6f565b9050919050565b6000602082019050818103600083015261115b81610e92565b9050919050565b6000602082019050818103600083015261117b81610eb5565b9050919050565b6000602082019050818103600083015261119b81610ed8565b9050919050565b600060208201905081810360008301526111bb81610efb565b9050919050565b600060208201905081810360008301526111db81610f41565b9050919050565b600060208201905081810360008301526111fb81610f64565b9050919050565b6000602082019050818103600083015261121b81610f87565b9050919050565b6000602082019050818103600083015261123b81610faa565b9050919050565b60006020820190506112576000830184610fdc565b92915050565b6000819050919050565b6000819050919050565b6000819050919050565b600060029050919050565b600060029050919050565b600060039050919050565b6000602082019050919050565b6000602082019050919050565b6000602082019050919050565b600081905092915050565b600081905092915050565b600081905092915050565b600081905092915050565b600081905092915050565b600082825260208201905092915050565b6000611316826113ec565b9150611321836113ec565b9250827fffffffffffffffffffffffffffffffffffffffffffffffffffffffffffffffff038211156113565761135561141a565b5b828201905092915050565b600061136c826113ec565b9150611377836113ec565b92508261138757611386611449565b5b828204905092915050565b600061139d826113cc565b9050919050565b60006113af826113cc565b9050919050565b60008115159050919050565b6000819050919050565b600073ffffffffffffffffffffffffffffffffffffffff82169050919050565b6000819050919050565b600061140182611408565b9050919050565b6000611413826113cc565b9050919050565b7f4e487b7100000000000000000000000000000000000000000000000000000000600052601160045260246000fd5b7f4e487b7100000000000000000000000000000000000000000000000000000000600052601260045260246000fd5b7f4e487b7100000000000000000000000000000000000000000000000000000000600052603260045260246000fd5b600080fd5b600080fd5b7f416464726573733a20756e61626c6520746f2073656e642076616c75652c207260008201527f6563697069656e74206d61792068617665207265766572746564000000000000602082015250565b7f416464726573733a20696e73756666696369656e742062616c616e6365000000600082015250565b7f546865206e6f74652068617320616c7265616479206265656e207370656e7400600082015250565b7f496e76616c69642064656e6f6d696e6174696f6e000000000000000000000000600082015250565b7f496e76616c69642056616c756500000000000000000000000000000000000000600082015250565b50565b7f5573656420636f6d6d69746d656e740000000000000000000000000000000000600082015250565b7f496e76616c69642050726f6f6600000000000000000000000000000000000000600082015250565b7f5265656e7472616e637947756172643a207265656e7472616e742063616c6c00600082015250565b7f556e75736564204e6f7465000000000000000000000000000000000000000000600082015250565b61165481611392565b811461165f57600080fd5b50565b61166b816113b6565b811461167657600080fd5b50565b611682816113c2565b811461168d57600080fd5b50565b611699816113ec565b81146116a457600080fd5b5056fea26469706673582212205bfd46ecc0a2a2caa82939a38fb4a3ff7c82e88cf45e8b1a6a2e70bccdea839564736f6c63430008060033",
  "linkReferences": {},
  "deployedLinkReferences": {}
}