{
  "_format": "hh-sol-artifact-1",
  "contractName": "Note",
  "sourceName": "contracts/Note.sol",
  "abi": [
    {
      "inputs": [
        {
          "internalType": "uint256",
          "name": "passKey",
          "type": "uint256"
        }
      ],
      "stateMutability": "payable",
      "type": "constructor"
    },
    {
      "inputs": [
        {
          "internalType": "uint256",
          "name": "pass1",
          "type": "uint256"
        }
      ],
      "name": "withdraw",
      "outputs": [],
      "stateMutability": "nonpayable",
      "type": "function"
    }
  ],
  "bytecode": "0x608060405260405161029338038061029383398181016040528101906100259190610047565b806000819055505061009a565b60008151905061004181610083565b92915050565b60006020828403121561005d5761005c61007e565b5b600061006b84828501610032565b91505092915050565b6000819050919050565b600080fd5b61008c81610074565b811461009757600080fd5b50565b6101ea806100a96000396000f3fe608060405234801561001057600080fd5b506004361061002b5760003560e01c80632e1a7d4d14610030575b600080fd5b61004a600480360381019061004591906100be565b61004c565b005b6000548114610090576040517f08c379a00000000000000000000000000000000000000000000000000000000081526004016100879061010e565b60405180910390fd5b3373ffffffffffffffffffffffffffffffffffffffff16ff5b6000813590506100b88161019d565b92915050565b6000602082840312156100d4576100d3610149565b5b60006100e2848285016100a9565b91505092915050565b60006100f860228361012e565b91506101038261014e565b604082019050919050565b60006020820190508181036000830152610127816100eb565b9050919050565b600082825260208201905092915050565b6000819050919050565b600080fd5b7f476976652074686520636f72726563742070617373206b657920746f20636c6160008201527f696d000000000000000000000000000000000000000000000000000000000000602082015250565b6101a68161013f565b81146101b157600080fd5b5056fea2646970667358221220aa1ef63e3debe39bdf0deb65da4be0a13b988d148d46647e4d9f111c481d4fc164736f6c63430008060033",
  "linkReferences": {},
  "deployedLinkReferences": {}
}